{
  "_format": "hh-sol-artifact-1",
  "contractName": "NFTMarketplace",
  "sourceName": "contracts/NFTMarketplace.sol",
  "abi": [
    {
      "inputs": [],
      "stateMutability": "nonpayable",
      "type": "constructor"
    },
    {
      "anonymous": false,
      "inputs": [
        {
          "indexed": true,
          "internalType": "address",
          "name": "owner",
          "type": "address"
        },
        {
          "indexed": true,
          "internalType": "address",
          "name": "approved",
          "type": "address"
        },
        {
          "indexed": true,
          "internalType": "uint256",
          "name": "tokenId",
          "type": "uint256"
        }
      ],
      "name": "Approval",
      "type": "event"
    },
    {
      "anonymous": false,
      "inputs": [
        {
          "indexed": true,
          "internalType": "address",
          "name": "owner",
          "type": "address"
        },
        {
          "indexed": true,
          "internalType": "address",
          "name": "operator",
          "type": "address"
        },
        {
          "indexed": false,
          "internalType": "bool",
          "name": "approved",
          "type": "bool"
        }
      ],
      "name": "ApprovalForAll",
      "type": "event"
    },
    {
      "anonymous": false,
      "inputs": [
        {
          "indexed": true,
          "internalType": "uint256",
          "name": "tokenId",
          "type": "uint256"
        },
        {
          "indexed": false,
          "internalType": "address",
          "name": "previousOwner",
          "type": "address"
        },
        {
          "indexed": false,
          "internalType": "address",
          "name": "currentOwner",
          "type": "address"
        },
        {
          "indexed": false,
          "internalType": "uint256",
          "name": "price",
          "type": "uint256"
        }
      ],
      "name": "MarketItemCreated",
      "type": "event"
    },
    {
      "anonymous": false,
      "inputs": [
        {
          "indexed": true,
          "internalType": "address",
          "name": "from",
          "type": "address"
        },
        {
          "indexed": true,
          "internalType": "address",
          "name": "to",
          "type": "address"
        },
        {
          "indexed": true,
          "internalType": "uint256",
          "name": "tokenId",
          "type": "uint256"
        }
      ],
      "name": "Transfer",
      "type": "event"
    },
    {
      "inputs": [
        {
          "internalType": "address",
          "name": "to",
          "type": "address"
        },
        {
          "internalType": "uint256",
          "name": "tokenId",
          "type": "uint256"
        }
      ],
      "name": "approve",
      "outputs": [],
      "stateMutability": "nonpayable",
      "type": "function"
    },
    {
      "inputs": [
        {
          "internalType": "address",
          "name": "owner",
          "type": "address"
        }
      ],
      "name": "balanceOf",
      "outputs": [
        {
          "internalType": "uint256",
          "name": "",
          "type": "uint256"
        }
      ],
      "stateMutability": "view",
      "type": "function"
    },
    {
      "inputs": [
        {
          "internalType": "string",
          "name": "tokenURI",
          "type": "string"
        },
        {
          "internalType": "uint256",
          "name": "price",
          "type": "uint256"
        }
      ],
      "name": "createToken",
      "outputs": [
        {
          "internalType": "uint256",
          "name": "",
          "type": "uint256"
        }
      ],
      "stateMutability": "payable",
      "type": "function"
    },
    {
      "inputs": [],
      "name": "fetchMyNFTs",
      "outputs": [
        {
          "components": [
            {
              "internalType": "uint256",
              "name": "tokenId",
              "type": "uint256"
            },
            {
              "internalType": "address payable",
              "name": "previousOwner",
              "type": "address"
            },
            {
              "internalType": "address payable",
              "name": "currentOwner",
              "type": "address"
            },
            {
              "internalType": "uint256",
              "name": "price",
              "type": "uint256"
            }
          ],
          "internalType": "struct NFTMarketplace.MarketItem[]",
          "name": "",
          "type": "tuple[]"
        }
      ],
      "stateMutability": "view",
      "type": "function"
    },
    {
      "inputs": [
        {
          "internalType": "uint256",
          "name": "tokenId",
          "type": "uint256"
        }
      ],
      "name": "getApproved",
      "outputs": [
        {
          "internalType": "address",
          "name": "",
          "type": "address"
        }
      ],
      "stateMutability": "view",
      "type": "function"
    },
    {
      "inputs": [],
      "name": "getListingPrice",
      "outputs": [
        {
          "internalType": "uint256",
          "name": "",
          "type": "uint256"
        }
      ],
      "stateMutability": "view",
      "type": "function"
    },
    {
      "inputs": [],
      "name": "getNumberMinted",
      "outputs": [
        {
          "internalType": "uint256",
          "name": "",
          "type": "uint256"
        }
      ],
      "stateMutability": "view",
      "type": "function"
    },
    {
      "inputs": [],
      "name": "getQtyLimit",
      "outputs": [
        {
          "internalType": "uint256",
          "name": "",
          "type": "uint256"
        }
      ],
      "stateMutability": "view",
      "type": "function"
    },
    {
      "inputs": [
        {
          "internalType": "address",
          "name": "owner",
          "type": "address"
        },
        {
          "internalType": "address",
          "name": "operator",
          "type": "address"
        }
      ],
      "name": "isApprovedForAll",
      "outputs": [
        {
          "internalType": "bool",
          "name": "",
          "type": "bool"
        }
      ],
      "stateMutability": "view",
      "type": "function"
    },
    {
      "inputs": [],
      "name": "name",
      "outputs": [
        {
          "internalType": "string",
          "name": "",
          "type": "string"
        }
      ],
      "stateMutability": "view",
      "type": "function"
    },
    {
      "inputs": [
        {
          "internalType": "uint256",
          "name": "tokenId",
          "type": "uint256"
        }
      ],
      "name": "ownerOf",
      "outputs": [
        {
          "internalType": "address",
          "name": "",
          "type": "address"
        }
      ],
      "stateMutability": "view",
      "type": "function"
    },
    {
      "inputs": [
        {
          "internalType": "address",
          "name": "from",
          "type": "address"
        },
        {
          "internalType": "address",
          "name": "to",
          "type": "address"
        },
        {
          "internalType": "uint256",
          "name": "tokenId",
          "type": "uint256"
        }
      ],
      "name": "safeTransferFrom",
      "outputs": [],
      "stateMutability": "nonpayable",
      "type": "function"
    },
    {
      "inputs": [
        {
          "internalType": "address",
          "name": "from",
          "type": "address"
        },
        {
          "internalType": "address",
          "name": "to",
          "type": "address"
        },
        {
          "internalType": "uint256",
          "name": "tokenId",
          "type": "uint256"
        },
        {
          "internalType": "bytes",
          "name": "_data",
          "type": "bytes"
        }
      ],
      "name": "safeTransferFrom",
      "outputs": [],
      "stateMutability": "nonpayable",
      "type": "function"
    },
    {
      "inputs": [
        {
          "internalType": "address",
          "name": "operator",
          "type": "address"
        },
        {
          "internalType": "bool",
          "name": "approved",
          "type": "bool"
        }
      ],
      "name": "setApprovalForAll",
      "outputs": [],
      "stateMutability": "nonpayable",
      "type": "function"
    },
    {
      "inputs": [
        {
          "internalType": "bytes4",
          "name": "interfaceId",
          "type": "bytes4"
        }
      ],
      "name": "supportsInterface",
      "outputs": [
        {
          "internalType": "bool",
          "name": "",
          "type": "bool"
        }
      ],
      "stateMutability": "view",
      "type": "function"
    },
    {
      "inputs": [],
      "name": "symbol",
      "outputs": [
        {
          "internalType": "string",
          "name": "",
          "type": "string"
        }
      ],
      "stateMutability": "view",
      "type": "function"
    },
    {
      "inputs": [
        {
          "internalType": "uint256",
          "name": "tokenId",
          "type": "uint256"
        }
      ],
      "name": "tokenURI",
      "outputs": [
        {
          "internalType": "string",
          "name": "",
          "type": "string"
        }
      ],
      "stateMutability": "view",
      "type": "function"
    },
    {
      "inputs": [
        {
          "internalType": "address",
          "name": "from",
          "type": "address"
        },
        {
          "internalType": "address",
          "name": "to",
          "type": "address"
        },
        {
          "internalType": "uint256",
          "name": "tokenId",
          "type": "uint256"
        }
      ],
      "name": "transferFrom",
      "outputs": [],
      "stateMutability": "nonpayable",
      "type": "function"
    }
  ],
  "bytecode": "0x608060405267016345785d8a000060085560046009553480156200002257600080fd5b50604080518082018252600d81526c13595d185ada58dadcc8139195609a1b6020808301918252835180850190945260048452634d45544b60e01b908401528151919291620000749160009162000093565b5080516200008a90600190602084019062000093565b50505062000176565b828054620000a19062000139565b90600052602060002090601f016020900481019282620000c5576000855562000110565b82601f10620000e057805160ff191683800117855562000110565b8280016001018555821562000110579182015b8281111562000110578251825591602001919060010190620000f3565b506200011e92915062000122565b5090565b5b808211156200011e576000815560010162000123565b600181811c908216806200014e57607f821691505b602082108114156200017057634e487b7160e01b600052602260045260246000fd5b50919050565b611c5b80620001866000396000f3fe6080604052600436106101095760003560e01c806370a0823111610095578063a22cb46511610064578063a22cb465146102bd578063b88d4fde146102dd578063be169a37146102fd578063c87b56dd14610312578063e985e9c51461033257600080fd5b806370a082311461026057806372b3b62014610280578063901d331d1461029357806395d89b41146102a857600080fd5b806312e85585116100dc57806312e85585146101bf578063202e3740146101de57806323b872dd1461020057806342842e0e146102205780636352211e1461024057600080fd5b806301ffc9a71461010e57806306fdde0314610143578063081812fc14610165578063095ea7b31461019d575b600080fd5b34801561011a57600080fd5b5061012e61012936600461188d565b61037b565b60405190151581526020015b60405180910390f35b34801561014f57600080fd5b506101586103cd565b60405161013a9190611a3b565b34801561017157600080fd5b5061018561018036600461191b565b61045f565b6040516001600160a01b03909116815260200161013a565b3480156101a957600080fd5b506101bd6101b8366004611864565b6104ec565b005b3480156101cb57600080fd5b506008545b60405190815260200161013a565b3480156101ea57600080fd5b506101f3610602565b60405161013a91906119cb565b34801561020c57600080fd5b506101bd61021b366004611776565b6107e7565b34801561022c57600080fd5b506101bd61023b366004611776565b610818565b34801561024c57600080fd5b5061018561025b36600461191b565b610833565b34801561026c57600080fd5b506101d061027b36600461172a565b6108aa565b6101d061028e3660046118c5565b610931565b34801561029f57600080fd5b506101d06109df565b3480156102b457600080fd5b506101586109ef565b3480156102c957600080fd5b506101bd6102d836600461182a565b6109fe565b3480156102e957600080fd5b506101bd6102f83660046117b1565b610a0d565b34801561030957600080fd5b506009546101d0565b34801561031e57600080fd5b5061015861032d36600461191b565b610a45565b34801561033e57600080fd5b5061012e61034d366004611744565b6001600160a01b03918216600090815260056020908152604080832093909416825291909152205460ff1690565b60006001600160e01b031982166380ac58cd60e01b14806103ac57506001600160e01b03198216635b5e139f60e01b145b806103c757506301ffc9a760e01b6001600160e01b03198316145b92915050565b6060600080546103dc90611b60565b80601f016020809104026020016040519081016040528092919081815260200182805461040890611b60565b80156104555780601f1061042a57610100808354040283529160200191610455565b820191906000526020600020905b81548152906001019060200180831161043857829003601f168201915b5050505050905090565b600061046a82610bbc565b6104d05760405162461bcd60e51b815260206004820152602c60248201527f4552433732313a20617070726f76656420717565727920666f72206e6f6e657860448201526b34b9ba32b73a103a37b5b2b760a11b60648201526084015b60405180910390fd5b506000908152600460205260409020546001600160a01b031690565b60006104f782610833565b9050806001600160a01b0316836001600160a01b031614156105655760405162461bcd60e51b815260206004820152602160248201527f4552433732313a20617070726f76616c20746f2063757272656e74206f776e656044820152603960f91b60648201526084016104c7565b336001600160a01b03821614806105815750610581813361034d565b6105f35760405162461bcd60e51b815260206004820152603860248201527f4552433732313a20617070726f76652063616c6c6572206973206e6f74206f7760448201527f6e6572206e6f7220617070726f76656420666f7220616c6c000000000000000060648201526084016104c7565b6105fd8383610bd9565b505050565b6060600061060f60075490565b905060008060005b838110156106725733600a600061062f846001611af1565b81526020810191909152604001600020600201546001600160a01b031614156106605761065d600184611af1565b92505b8061066a81611b9b565b915050610617565b5060008267ffffffffffffffff81111561069c57634e487b7160e01b600052604160045260246000fd5b6040519080825280602002602001820160405280156106ee57816020015b6040805160808101825260008082526020808301829052928201819052606082015282526000199092019101816106ba5790505b50905060005b848110156107de5733600a600061070c846001611af1565b81526020810191909152604001600020600201546001600160a01b031614156107cc57600061073c826001611af1565b6000818152600a602090815260409182902082516080810184528154815260018201546001600160a01b039081169382019390935260028201549092169282019290925260038201546060820152855192935090918590879081106107b157634e487b7160e01b600052603260045260246000fd5b60209081029190910101526107c7600186611af1565b945050505b806107d681611b9b565b9150506106f4565b50949350505050565b6107f13382610c47565b61080d5760405162461bcd60e51b81526004016104c790611aa0565b6105fd838383610d30565b6105fd83838360405180602001604052806000815250610a0d565b6000818152600260205260408120546001600160a01b0316806103c75760405162461bcd60e51b815260206004820152602960248201527f4552433732313a206f776e657220717565727920666f72206e6f6e657869737460448201526832b73a103a37b5b2b760b91b60648201526084016104c7565b60006001600160a01b0382166109155760405162461bcd60e51b815260206004820152602a60248201527f4552433732313a2062616c616e636520717565727920666f7220746865207a65604482015269726f206164647265737360b01b60648201526084016104c7565b506001600160a01b031660009081526003602052604090205490565b600060095461093f60075490565b1061099f5760405162461bcd60e51b815260206004820152602a60248201527f43616e2774206d696e74206d6f726520746f6b656e73207468616e2070726573604482015269616c6520616c6c6f777360b01b60648201526084016104c7565b6109ad600780546001019055565b60006109b860075490565b90506109c43382610ecc565b6109ce8185610fff565b6109d8818461108a565b9392505050565b60006109ea60075490565b905090565b6060600180546103dc90611b60565b610a093383836111ff565b5050565b610a173383610c47565b610a335760405162461bcd60e51b81526004016104c790611aa0565b610a3f848484846112ce565b50505050565b6060610a5082610bbc565b610ab65760405162461bcd60e51b815260206004820152603160248201527f45524337323155524953746f726167653a2055524920717565727920666f72206044820152703737b732bc34b9ba32b73a103a37b5b2b760791b60648201526084016104c7565b60008281526006602052604081208054610acf90611b60565b80601f0160208091040260200160405190810160405280929190818152602001828054610afb90611b60565b8015610b485780601f10610b1d57610100808354040283529160200191610b48565b820191906000526020600020905b815481529060010190602001808311610b2b57829003601f168201915b505050505090506000610b6660408051602081019091526000815290565b9050805160001415610b79575092915050565b815115610bab578082604051602001610b9392919061195f565b60405160208183030381529060405292505050919050565b610bb484611301565b949350505050565b6000908152600260205260409020546001600160a01b0316151590565b600081815260046020526040902080546001600160a01b0319166001600160a01b0384169081179091558190610c0e82610833565b6001600160a01b03167f8c5be1e5ebec7d5bd14f71427d1e84f3dd0314c0f7b2291e5b200ac8c7c3b92560405160405180910390a45050565b6000610c5282610bbc565b610cb35760405162461bcd60e51b815260206004820152602c60248201527f4552433732313a206f70657261746f7220717565727920666f72206e6f6e657860448201526b34b9ba32b73a103a37b5b2b760a11b60648201526084016104c7565b6000610cbe83610833565b9050806001600160a01b0316846001600160a01b03161480610d0557506001600160a01b0380821660009081526005602090815260408083209388168352929052205460ff165b80610bb45750836001600160a01b0316610d1e8461045f565b6001600160a01b031614949350505050565b826001600160a01b0316610d4382610833565b6001600160a01b031614610da75760405162461bcd60e51b815260206004820152602560248201527f4552433732313a207472616e736665722066726f6d20696e636f72726563742060448201526437bbb732b960d91b60648201526084016104c7565b6001600160a01b038216610e095760405162461bcd60e51b8152602060048201526024808201527f4552433732313a207472616e7366657220746f20746865207a65726f206164646044820152637265737360e01b60648201526084016104c7565b610e14600082610bd9565b6001600160a01b0383166000908152600360205260408120805460019290610e3d908490611b1d565b90915550506001600160a01b0382166000908152600360205260408120805460019290610e6b908490611af1565b909155505060008181526002602052604080822080546001600160a01b0319166001600160a01b0386811691821790925591518493918716917fddf252ad1be2c89b69c2b068fc378daa952ba7f163c4a11628f55a4df523b3ef91a4505050565b6001600160a01b038216610f225760405162461bcd60e51b815260206004820181905260248201527f4552433732313a206d696e7420746f20746865207a65726f206164647265737360448201526064016104c7565b610f2b81610bbc565b15610f785760405162461bcd60e51b815260206004820152601c60248201527f4552433732313a20746f6b656e20616c7265616479206d696e7465640000000060448201526064016104c7565b6001600160a01b0382166000908152600360205260408120805460019290610fa1908490611af1565b909155505060008181526002602052604080822080546001600160a01b0319166001600160a01b03861690811790915590518392907fddf252ad1be2c89b69c2b068fc378daa952ba7f163c4a11628f55a4df523b3ef908290a45050565b61100882610bbc565b61106b5760405162461bcd60e51b815260206004820152602e60248201527f45524337323155524953746f726167653a2055524920736574206f66206e6f6e60448201526d32bc34b9ba32b73a103a37b5b2b760911b60648201526084016104c7565b600082815260066020908152604090912082516105fd928401906115ff565b600081116110da5760405162461bcd60e51b815260206004820152601c60248201527f5072696365206d757374206265206174206c656173742031207765690000000060448201526064016104c7565b60085434146111395760405162461bcd60e51b815260206004820152602560248201527f5072696365206d75737420626520657175616c20746f206c697374696e6720706044820152643934b1b29760d91b60648201526084016104c7565b60408051608081018252838152306020808301828152338486018181526060860188815260008a8152600a909552969093209451855590516001850180546001600160a01b03199081166001600160a01b0393841617909155925160028601805490941691161790915592516003909201919091556111b9919084610d30565b6040805132815233602082015290810182905282907f60af48b7e1a8c27a8471e490b952dbd818ad363aef7884211ae333dad8a130d29060600160405180910390a25050565b816001600160a01b0316836001600160a01b031614156112615760405162461bcd60e51b815260206004820152601960248201527f4552433732313a20617070726f766520746f2063616c6c65720000000000000060448201526064016104c7565b6001600160a01b03838116600081815260056020908152604080832094871680845294825291829020805460ff191686151590811790915591519182527f17307eab39ab6107e8899845ad3d59bd9653f200f220920489ca2b5937696c31910160405180910390a3505050565b6112d9848484610d30565b6112e5848484846113d8565b610a3f5760405162461bcd60e51b81526004016104c790611a4e565b606061130c82610bbc565b6113705760405162461bcd60e51b815260206004820152602f60248201527f4552433732314d657461646174613a2055524920717565727920666f72206e6f60448201526e3732bc34b9ba32b73a103a37b5b2b760891b60648201526084016104c7565b600061138760408051602081019091526000815290565b905060008151116113a757604051806020016040528060008152506109d8565b806113b1846114e5565b6040516020016113c292919061195f565b6040516020818303038152906040529392505050565b60006001600160a01b0384163b156114da57604051630a85bd0160e11b81526001600160a01b0385169063150b7a029061141c90339089908890889060040161198e565b602060405180830381600087803b15801561143657600080fd5b505af1925050508015611466575060408051601f3d908101601f19168201909252611463918101906118a9565b60015b6114c0573d808015611494576040519150601f19603f3d011682016040523d82523d6000602084013e611499565b606091505b5080516114b85760405162461bcd60e51b81526004016104c790611a4e565b805181602001fd5b6001600160e01b031916630a85bd0160e11b149050610bb4565b506001949350505050565b6060816115095750506040805180820190915260018152600360fc1b602082015290565b8160005b8115611533578061151d81611b9b565b915061152c9050600a83611b09565b915061150d565b60008167ffffffffffffffff81111561155c57634e487b7160e01b600052604160045260246000fd5b6040519080825280601f01601f191660200182016040528015611586576020820181803683370190505b5090505b8415610bb45761159b600183611b1d565b91506115a8600a86611bb6565b6115b3906030611af1565b60f81b8183815181106115d657634e487b7160e01b600052603260045260246000fd5b60200101906001600160f81b031916908160001a9053506115f8600a86611b09565b945061158a565b82805461160b90611b60565b90600052602060002090601f01602090048101928261162d5760008555611673565b82601f1061164657805160ff1916838001178555611673565b82800160010185558215611673579182015b82811115611673578251825591602001919060010190611658565b5061167f929150611683565b5090565b5b8082111561167f5760008155600101611684565b600067ffffffffffffffff808411156116b3576116b3611bf6565b604051601f8501601f19908116603f011681019082821181831017156116db576116db611bf6565b816040528093508581528686860111156116f457600080fd5b858560208301376000602087830101525050509392505050565b80356001600160a01b038116811461172557600080fd5b919050565b60006020828403121561173b578081fd5b6109d88261170e565b60008060408385031215611756578081fd5b61175f8361170e565b915061176d6020840161170e565b90509250929050565b60008060006060848603121561178a578081fd5b6117938461170e565b92506117a16020850161170e565b9150604084013590509250925092565b600080600080608085870312156117c6578081fd5b6117cf8561170e565b93506117dd6020860161170e565b925060408501359150606085013567ffffffffffffffff8111156117ff578182fd5b8501601f8101871361180f578182fd5b61181e87823560208401611698565b91505092959194509250565b6000806040838503121561183c578182fd5b6118458361170e565b915060208301358015158114611859578182fd5b809150509250929050565b60008060408385031215611876578182fd5b61187f8361170e565b946020939093013593505050565b60006020828403121561189e578081fd5b81356109d881611c0c565b6000602082840312156118ba578081fd5b81516109d881611c0c565b600080604083850312156118d7578182fd5b823567ffffffffffffffff8111156118ed578283fd5b8301601f810185136118fd578283fd5b61190c85823560208401611698565b95602094909401359450505050565b60006020828403121561192c578081fd5b5035919050565b6000815180845261194b816020860160208601611b34565b601f01601f19169290920160200192915050565b60008351611971818460208801611b34565b835190830190611985818360208801611b34565b01949350505050565b6001600160a01b03858116825284166020820152604081018390526080606082018190526000906119c190830184611933565b9695505050505050565b602080825282518282018190526000919060409081850190868401855b82811015611a2e57815180518552868101516001600160a01b039081168887015286820151168686015260609081015190850152608090930192908501906001016119e8565b5091979650505050505050565b6020815260006109d86020830184611933565b60208082526032908201527f4552433732313a207472616e7366657220746f206e6f6e20455243373231526560408201527131b2b4bb32b91034b6b83632b6b2b73a32b960711b606082015260800190565b60208082526031908201527f4552433732313a207472616e736665722063616c6c6572206973206e6f74206f6040820152701ddb995c881b9bdc88185c1c1c9bdd9959607a1b606082015260800190565b60008219821115611b0457611b04611bca565b500190565b600082611b1857611b18611be0565b500490565b600082821015611b2f57611b2f611bca565b500390565b60005b83811015611b4f578181015183820152602001611b37565b83811115610a3f5750506000910152565b600181811c90821680611b7457607f821691505b60208210811415611b9557634e487b7160e01b600052602260045260246000fd5b50919050565b6000600019821415611baf57611baf611bca565b5060010190565b600082611bc557611bc5611be0565b500690565b634e487b7160e01b600052601160045260246000fd5b634e487b7160e01b600052601260045260246000fd5b634e487b7160e01b600052604160045260246000fd5b6001600160e01b031981168114611c2257600080fd5b5056fea264697066735822122045e73502166febfa601e70a75eeb4c0676f21f11767b375ce8d4c8303b676fbf64736f6c63430008040033",
  "linkReferences": {},
  "deployedLinkReferences": {}
}