{
  "contractName": "MetakicksNFT",
  "abi": [
    {
      "inputs": [
        {
          "internalType": "string",
          "name": "_name",
          "type": "string"
        },
        {
          "internalType": "string",
          "name": "_symbol",
          "type": "string"
        },
        {
          "internalType": "string",
          "name": "_initBaseURI",
          "type": "string"
        }
      ],
      "stateMutability": "nonpayable",
      "type": "constructor"
    },
    {
      "anonymous": false,
      "inputs": [
        {
          "indexed": true,
          "internalType": "address",
          "name": "owner",
          "type": "address"
        },
        {
          "indexed": true,
          "internalType": "address",
          "name": "approved",
          "type": "address"
        },
        {
          "indexed": true,
          "internalType": "uint256",
          "name": "tokenId",
          "type": "uint256"
        }
      ],
      "name": "Approval",
      "type": "event"
    },
    {
      "anonymous": false,
      "inputs": [
        {
          "indexed": true,
          "internalType": "address",
          "name": "owner",
          "type": "address"
        },
        {
          "indexed": true,
          "internalType": "address",
          "name": "operator",
          "type": "address"
        },
        {
          "indexed": false,
          "internalType": "bool",
          "name": "approved",
          "type": "bool"
        }
      ],
      "name": "ApprovalForAll",
      "type": "event"
    },
    {
      "anonymous": false,
      "inputs": [
        {
          "indexed": true,
          "internalType": "address",
          "name": "previousOwner",
          "type": "address"
        },
        {
          "indexed": true,
          "internalType": "address",
          "name": "newOwner",
          "type": "address"
        }
      ],
      "name": "OwnershipTransferred",
      "type": "event"
    },
    {
      "anonymous": false,
      "inputs": [
        {
          "indexed": true,
          "internalType": "address",
          "name": "from",
          "type": "address"
        },
        {
          "indexed": true,
          "internalType": "address",
          "name": "to",
          "type": "address"
        },
        {
          "indexed": true,
          "internalType": "uint256",
          "name": "tokenId",
          "type": "uint256"
        }
      ],
      "name": "Transfer",
      "type": "event"
    },
    {
      "inputs": [
        {
          "internalType": "address",
          "name": "to",
          "type": "address"
        },
        {
          "internalType": "uint256",
          "name": "tokenId",
          "type": "uint256"
        }
      ],
      "name": "approve",
      "outputs": [],
      "stateMutability": "nonpayable",
      "type": "function"
    },
    {
      "inputs": [
        {
          "internalType": "address",
          "name": "owner",
          "type": "address"
        }
      ],
      "name": "balanceOf",
      "outputs": [
        {
          "internalType": "uint256",
          "name": "",
          "type": "uint256"
        }
      ],
      "stateMutability": "view",
      "type": "function",
      "constant": true
    },
    {
      "inputs": [],
      "name": "baseExtension",
      "outputs": [
        {
          "internalType": "string",
          "name": "",
          "type": "string"
        }
      ],
      "stateMutability": "view",
      "type": "function",
      "constant": true
    },
    {
      "inputs": [],
      "name": "baseURI",
      "outputs": [
        {
          "internalType": "string",
          "name": "",
          "type": "string"
        }
      ],
      "stateMutability": "view",
      "type": "function",
      "constant": true
    },
    {
      "inputs": [],
      "name": "cost",
      "outputs": [
        {
          "internalType": "uint256",
          "name": "",
          "type": "uint256"
        }
      ],
      "stateMutability": "view",
      "type": "function",
      "constant": true
    },
    {
      "inputs": [
        {
          "internalType": "uint256",
          "name": "tokenId",
          "type": "uint256"
        }
      ],
      "name": "getApproved",
      "outputs": [
        {
          "internalType": "address",
          "name": "",
          "type": "address"
        }
      ],
      "stateMutability": "view",
      "type": "function",
      "constant": true
    },
    {
      "inputs": [
        {
          "internalType": "address",
          "name": "owner",
          "type": "address"
        },
        {
          "internalType": "address",
          "name": "operator",
          "type": "address"
        }
      ],
      "name": "isApprovedForAll",
      "outputs": [
        {
          "internalType": "bool",
          "name": "",
          "type": "bool"
        }
      ],
      "stateMutability": "view",
      "type": "function",
      "constant": true
    },
    {
      "inputs": [],
      "name": "maxMintAmount",
      "outputs": [
        {
          "internalType": "uint256",
          "name": "",
          "type": "uint256"
        }
      ],
      "stateMutability": "view",
      "type": "function",
      "constant": true
    },
    {
      "inputs": [],
      "name": "maxSupply",
      "outputs": [
        {
          "internalType": "uint256",
          "name": "",
          "type": "uint256"
        }
      ],
      "stateMutability": "view",
      "type": "function",
      "constant": true
    },
    {
      "inputs": [],
      "name": "name",
      "outputs": [
        {
          "internalType": "string",
          "name": "",
          "type": "string"
        }
      ],
      "stateMutability": "view",
      "type": "function",
      "constant": true
    },
    {
      "inputs": [],
      "name": "owner",
      "outputs": [
        {
          "internalType": "address",
          "name": "",
          "type": "address"
        }
      ],
      "stateMutability": "view",
      "type": "function",
      "constant": true
    },
    {
      "inputs": [
        {
          "internalType": "uint256",
          "name": "tokenId",
          "type": "uint256"
        }
      ],
      "name": "ownerOf",
      "outputs": [
        {
          "internalType": "address",
          "name": "",
          "type": "address"
        }
      ],
      "stateMutability": "view",
      "type": "function",
      "constant": true
    },
    {
      "inputs": [],
      "name": "paused",
      "outputs": [
        {
          "internalType": "bool",
          "name": "",
          "type": "bool"
        }
      ],
      "stateMutability": "view",
      "type": "function",
      "constant": true
    },
    {
      "inputs": [],
      "name": "renounceOwnership",
      "outputs": [],
      "stateMutability": "nonpayable",
      "type": "function"
    },
    {
      "inputs": [
        {
          "internalType": "address",
          "name": "from",
          "type": "address"
        },
        {
          "internalType": "address",
          "name": "to",
          "type": "address"
        },
        {
          "internalType": "uint256",
          "name": "tokenId",
          "type": "uint256"
        }
      ],
      "name": "safeTransferFrom",
      "outputs": [],
      "stateMutability": "nonpayable",
      "type": "function"
    },
    {
      "inputs": [
        {
          "internalType": "address",
          "name": "from",
          "type": "address"
        },
        {
          "internalType": "address",
          "name": "to",
          "type": "address"
        },
        {
          "internalType": "uint256",
          "name": "tokenId",
          "type": "uint256"
        },
        {
          "internalType": "bytes",
          "name": "_data",
          "type": "bytes"
        }
      ],
      "name": "safeTransferFrom",
      "outputs": [],
      "stateMutability": "nonpayable",
      "type": "function"
    },
    {
      "inputs": [
        {
          "internalType": "address",
          "name": "operator",
          "type": "address"
        },
        {
          "internalType": "bool",
          "name": "approved",
          "type": "bool"
        }
      ],
      "name": "setApprovalForAll",
      "outputs": [],
      "stateMutability": "nonpayable",
      "type": "function"
    },
    {
      "inputs": [
        {
          "internalType": "bytes4",
          "name": "interfaceId",
          "type": "bytes4"
        }
      ],
      "name": "supportsInterface",
      "outputs": [
        {
          "internalType": "bool",
          "name": "",
          "type": "bool"
        }
      ],
      "stateMutability": "view",
      "type": "function",
      "constant": true
    },
    {
      "inputs": [],
      "name": "symbol",
      "outputs": [
        {
          "internalType": "string",
          "name": "",
          "type": "string"
        }
      ],
      "stateMutability": "view",
      "type": "function",
      "constant": true
    },
    {
      "inputs": [
        {
          "internalType": "uint256",
          "name": "index",
          "type": "uint256"
        }
      ],
      "name": "tokenByIndex",
      "outputs": [
        {
          "internalType": "uint256",
          "name": "",
          "type": "uint256"
        }
      ],
      "stateMutability": "view",
      "type": "function",
      "constant": true
    },
    {
      "inputs": [
        {
          "internalType": "address",
          "name": "owner",
          "type": "address"
        },
        {
          "internalType": "uint256",
          "name": "index",
          "type": "uint256"
        }
      ],
      "name": "tokenOfOwnerByIndex",
      "outputs": [
        {
          "internalType": "uint256",
          "name": "",
          "type": "uint256"
        }
      ],
      "stateMutability": "view",
      "type": "function",
      "constant": true
    },
    {
      "inputs": [],
      "name": "totalSupply",
      "outputs": [
        {
          "internalType": "uint256",
          "name": "",
          "type": "uint256"
        }
      ],
      "stateMutability": "view",
      "type": "function",
      "constant": true
    },
    {
      "inputs": [
        {
          "internalType": "address",
          "name": "from",
          "type": "address"
        },
        {
          "internalType": "address",
          "name": "to",
          "type": "address"
        },
        {
          "internalType": "uint256",
          "name": "tokenId",
          "type": "uint256"
        }
      ],
      "name": "transferFrom",
      "outputs": [],
      "stateMutability": "nonpayable",
      "type": "function"
    },
    {
      "inputs": [
        {
          "internalType": "address",
          "name": "newOwner",
          "type": "address"
        }
      ],
      "name": "transferOwnership",
      "outputs": [],
      "stateMutability": "nonpayable",
      "type": "function"
    },
    {
      "inputs": [
        {
          "internalType": "address",
          "name": "_to",
          "type": "address"
        },
        {
          "internalType": "uint256",
          "name": "_mintAmount",
          "type": "uint256"
        }
      ],
      "name": "mint",
      "outputs": [],
      "stateMutability": "payable",
      "type": "function",
      "payable": true
    },
    {
      "inputs": [
        {
          "internalType": "address",
          "name": "_owner",
          "type": "address"
        }
      ],
      "name": "walletOfOwner",
      "outputs": [
        {
          "internalType": "uint256[]",
          "name": "",
          "type": "uint256[]"
        }
      ],
      "stateMutability": "view",
      "type": "function",
      "constant": true
    },
    {
      "inputs": [
        {
          "internalType": "uint256",
          "name": "tokenId",
          "type": "uint256"
        }
      ],
      "name": "tokenURI",
      "outputs": [
        {
          "internalType": "string",
          "name": "",
          "type": "string"
        }
      ],
      "stateMutability": "view",
      "type": "function",
      "constant": true
    },
    {
      "inputs": [
        {
          "internalType": "uint256",
          "name": "_newCost",
          "type": "uint256"
        }
      ],
      "name": "setCost",
      "outputs": [],
      "stateMutability": "nonpayable",
      "type": "function"
    },
    {
      "inputs": [
        {
          "internalType": "uint256",
          "name": "_newmaxMintAmount",
          "type": "uint256"
        }
      ],
      "name": "setmaxMintAmount",
      "outputs": [],
      "stateMutability": "nonpayable",
      "type": "function"
    },
    {
      "inputs": [
        {
          "internalType": "string",
          "name": "_newBaseURI",
          "type": "string"
        }
      ],
      "name": "setBaseURI",
      "outputs": [],
      "stateMutability": "nonpayable",
      "type": "function"
    },
    {
      "inputs": [
        {
          "internalType": "string",
          "name": "_newBaseExtension",
          "type": "string"
        }
      ],
      "name": "setBaseExtension",
      "outputs": [],
      "stateMutability": "nonpayable",
      "type": "function"
    },
    {
      "inputs": [
        {
          "internalType": "bool",
          "name": "_state",
          "type": "bool"
        }
      ],
      "name": "pause",
      "outputs": [],
      "stateMutability": "nonpayable",
      "type": "function"
    },
    {
      "inputs": [],
      "name": "withdraw",
      "outputs": [],
      "stateMutability": "payable",
      "type": "function",
      "payable": true
    }
  ],
  "bytecode": "0x60806040526040518060400160405280600581526020017f2e6a736f6e000000000000000000000000000000000000000000000000000000815250600c90805190602001906200005192919062000d9b565b506000600d556004600e556004600f556000601060006101000a81548160ff0219169083151502179055503480156200008957600080fd5b5060405162005855380380620058558339818101604052810190620000af919062000fe8565b82828160009080519060200190620000c992919062000d9b565b508060019080519060200190620000e292919062000d9b565b50505062000105620000f96200013260201b60201c565b6200013a60201b60201c565b62000116816200020060201b60201c565b62000129336001620002ab60201b60201c565b50505062001711565b600033905090565b6000600a60009054906101000a900473ffffffffffffffffffffffffffffffffffffffff16905081600a60006101000a81548173ffffffffffffffffffffffffffffffffffffffff021916908373ffffffffffffffffffffffffffffffffffffffff1602179055508173ffffffffffffffffffffffffffffffffffffffff168173ffffffffffffffffffffffffffffffffffffffff167f8be0079c531659141344cd1fd0a4f28419497f9722a3daafe3b4186f6b6457e060405160405180910390a35050565b620002106200013260201b60201c565b73ffffffffffffffffffffffffffffffffffffffff16620002366200037c60201b60201c565b73ffffffffffffffffffffffffffffffffffffffff16146200028f576040517f08c379a0000000000000000000000000000000000000000000000000000000008152600401620002869062001102565b60405180910390fd5b80600b9080519060200190620002a792919062000d9b565b5050565b6000620002bd620003a660201b60201c565b9050601060009054906101000a900460ff1615620002da57600080fd5b60008211620002e857600080fd5b600f54821115620002f857600080fd5b600e5482826200030991906200115d565b11156200031557600080fd5b81600d54620003259190620011ba565b3410156200033257600080fd5b6000600190505b8281116200037657620003608482846200035491906200115d565b620003b360201b60201c565b80806200036d906200121b565b91505062000339565b50505050565b6000600a60009054906101000a900473ffffffffffffffffffffffffffffffffffffffff16905090565b6000600880549050905090565b620003d5828260405180602001604052806000815250620003d960201b60201c565b5050565b620003eb83836200044760201b60201c565b6200040060008484846200062d60201b60201c565b62000442576040517f08c379a00000000000000000000000000000000000000000000000000000000081526004016200043990620012df565b60405180910390fd5b505050565b600073ffffffffffffffffffffffffffffffffffffffff168273ffffffffffffffffffffffffffffffffffffffff161415620004ba576040517f08c379a0000000000000000000000000000000000000000000000000000000008152600401620004b19062001351565b60405180910390fd5b620004cb81620007e760201b60201c565b156200050e576040517f08c379a00000000000000000000000000000000000000000000000000000000081526004016200050590620013c3565b60405180910390fd5b62000522600083836200085360201b60201c565b6001600360008473ffffffffffffffffffffffffffffffffffffffff1673ffffffffffffffffffffffffffffffffffffffff16815260200190815260200160002060008282546200057491906200115d565b92505081905550816002600083815260200190815260200160002060006101000a81548173ffffffffffffffffffffffffffffffffffffffff021916908373ffffffffffffffffffffffffffffffffffffffff160217905550808273ffffffffffffffffffffffffffffffffffffffff16600073ffffffffffffffffffffffffffffffffffffffff167fddf252ad1be2c89b69c2b068fc378daa952ba7f163c4a11628f55a4df523b3ef60405160405180910390a45050565b60006200065b8473ffffffffffffffffffffffffffffffffffffffff166200099a60201b620019471760201c565b15620007da578373ffffffffffffffffffffffffffffffffffffffff1663150b7a026200068d6200013260201b60201c565b8786866040518563ffffffff1660e01b8152600401620006b1949392919062001498565b602060405180830381600087803b158015620006cc57600080fd5b505af19250505080156200070057506040513d601f19601f82011682018060405250810190620006fd919062001549565b60015b62000789573d806000811462000733576040519150601f19603f3d011682016040523d82523d6000602084013e62000738565b606091505b5060008151141562000781576040517f08c379a00000000000000000000000000000000000000000000000000000000081526004016200077890620012df565b60405180910390fd5b805181602001fd5b63150b7a0260e01b7bffffffffffffffffffffffffffffffffffffffffffffffffffffffff1916817bffffffffffffffffffffffffffffffffffffffffffffffffffffffff191614915050620007df565b600190505b949350505050565b60008073ffffffffffffffffffffffffffffffffffffffff166002600084815260200190815260200160002060009054906101000a900473ffffffffffffffffffffffffffffffffffffffff1673ffffffffffffffffffffffffffffffffffffffff1614159050919050565b6200086b838383620009ad60201b6200195a1760201c565b600073ffffffffffffffffffffffffffffffffffffffff168373ffffffffffffffffffffffffffffffffffffffff161415620008b857620008b281620009b260201b60201c565b62000900565b8173ffffffffffffffffffffffffffffffffffffffff168373ffffffffffffffffffffffffffffffffffffffff1614620008ff57620008fe8382620009fb60201b60201c565b5b5b600073ffffffffffffffffffffffffffffffffffffffff168273ffffffffffffffffffffffffffffffffffffffff1614156200094d57620009478162000b7860201b60201c565b62000995565b8273ffffffffffffffffffffffffffffffffffffffff168273ffffffffffffffffffffffffffffffffffffffff1614620009945762000993828262000c5460201b60201c565b5b5b505050565b600080823b905060008111915050919050565b505050565b6008805490506009600083815260200190815260200160002081905550600881908060018154018082558091505060019003906000526020600020016000909190919091505550565b6000600162000a158462000ce060201b620011821760201c565b62000a2191906200157b565b905060006007600084815260200190815260200160002054905081811462000b07576000600660008673ffffffffffffffffffffffffffffffffffffffff1673ffffffffffffffffffffffffffffffffffffffff168152602001908152602001600020600084815260200190815260200160002054905080600660008773ffffffffffffffffffffffffffffffffffffffff1673ffffffffffffffffffffffffffffffffffffffff168152602001908152602001600020600084815260200190815260200160002081905550816007600083815260200190815260200160002081905550505b6007600084815260200190815260200160002060009055600660008573ffffffffffffffffffffffffffffffffffffffff1673ffffffffffffffffffffffffffffffffffffffff16815260200190815260200160002060008381526020019081526020016000206000905550505050565b6000600160088054905062000b8e91906200157b565b905060006009600084815260200190815260200160002054905060006008838154811062000bc15762000bc0620015b6565b5b90600052602060002001549050806008838154811062000be65762000be5620015b6565b5b90600052602060002001819055508160096000838152602001908152602001600020819055506009600085815260200190815260200160002060009055600880548062000c385762000c37620015e5565b5b6001900381819060005260206000200160009055905550505050565b600062000c6c8362000ce060201b620011821760201c565b905081600660008573ffffffffffffffffffffffffffffffffffffffff1673ffffffffffffffffffffffffffffffffffffffff168152602001908152602001600020600083815260200190815260200160002081905550806007600084815260200190815260200160002081905550505050565b60008073ffffffffffffffffffffffffffffffffffffffff168273ffffffffffffffffffffffffffffffffffffffff16141562000d54576040517f08c379a000000000000000000000000000000000000000000000000000000000815260040162000d4b906200168a565b60405180910390fd5b600360008373ffffffffffffffffffffffffffffffffffffffff1673ffffffffffffffffffffffffffffffffffffffff168152602001908152602001600020549050919050565b82805462000da990620016db565b90600052602060002090601f01602090048101928262000dcd576000855562000e19565b82601f1062000de857805160ff191683800117855562000e19565b8280016001018555821562000e19579182015b8281111562000e1857825182559160200191906001019062000dfb565b5b50905062000e28919062000e2c565b5090565b5b8082111562000e4757600081600090555060010162000e2d565b5090565b6000604051905090565b600080fd5b600080fd5b600080fd5b600080fd5b6000601f19601f8301169050919050565b7f4e487b7100000000000000000000000000000000000000000000000000000000600052604160045260246000fd5b62000eb48262000e69565b810181811067ffffffffffffffff8211171562000ed65762000ed562000e7a565b5b80604052505050565b600062000eeb62000e4b565b905062000ef9828262000ea9565b919050565b600067ffffffffffffffff82111562000f1c5762000f1b62000e7a565b5b62000f278262000e69565b9050602081019050919050565b60005b8381101562000f5457808201518184015260208101905062000f37565b8381111562000f64576000848401525b50505050565b600062000f8162000f7b8462000efe565b62000edf565b90508281526020810184848401111562000fa05762000f9f62000e64565b5b62000fad84828562000f34565b509392505050565b600082601f83011262000fcd5762000fcc62000e5f565b5b815162000fdf84826020860162000f6a565b91505092915050565b60008060006060848603121562001004576200100362000e55565b5b600084015167ffffffffffffffff81111562001025576200102462000e5a565b5b620010338682870162000fb5565b935050602084015167ffffffffffffffff81111562001057576200105662000e5a565b5b620010658682870162000fb5565b925050604084015167ffffffffffffffff81111562001089576200108862000e5a565b5b620010978682870162000fb5565b9150509250925092565b600082825260208201905092915050565b7f4f776e61626c653a2063616c6c6572206973206e6f7420746865206f776e6572600082015250565b6000620010ea602083620010a1565b9150620010f782620010b2565b602082019050919050565b600060208201905081810360008301526200111d81620010db565b9050919050565b6000819050919050565b7f4e487b7100000000000000000000000000000000000000000000000000000000600052601160045260246000fd5b60006200116a8262001124565b9150620011778362001124565b9250827fffffffffffffffffffffffffffffffffffffffffffffffffffffffffffffffff03821115620011af57620011ae6200112e565b5b828201905092915050565b6000620011c78262001124565b9150620011d48362001124565b9250817fffffffffffffffffffffffffffffffffffffffffffffffffffffffffffffffff048311821515161562001210576200120f6200112e565b5b828202905092915050565b6000620012288262001124565b91507fffffffffffffffffffffffffffffffffffffffffffffffffffffffffffffffff8214156200125e576200125d6200112e565b5b600182019050919050565b7f4552433732313a207472616e7366657220746f206e6f6e20455243373231526560008201527f63656976657220696d706c656d656e7465720000000000000000000000000000602082015250565b6000620012c7603283620010a1565b9150620012d48262001269565b604082019050919050565b60006020820190508181036000830152620012fa81620012b8565b9050919050565b7f4552433732313a206d696e7420746f20746865207a65726f2061646472657373600082015250565b600062001339602083620010a1565b9150620013468262001301565b602082019050919050565b600060208201905081810360008301526200136c816200132a565b9050919050565b7f4552433732313a20746f6b656e20616c7265616479206d696e74656400000000600082015250565b6000620013ab601c83620010a1565b9150620013b88262001373565b602082019050919050565b60006020820190508181036000830152620013de816200139c565b9050919050565b600073ffffffffffffffffffffffffffffffffffffffff82169050919050565b60006200141282620013e5565b9050919050565b620014248162001405565b82525050565b620014358162001124565b82525050565b600081519050919050565b600082825260208201905092915050565b600062001464826200143b565b62001470818562001446565b93506200148281856020860162000f34565b6200148d8162000e69565b840191505092915050565b6000608082019050620014af600083018762001419565b620014be602083018662001419565b620014cd60408301856200142a565b8181036060830152620014e1818462001457565b905095945050505050565b60007fffffffff0000000000000000000000000000000000000000000000000000000082169050919050565b6200152381620014ec565b81146200152f57600080fd5b50565b600081519050620015438162001518565b92915050565b60006020828403121562001562576200156162000e55565b5b6000620015728482850162001532565b91505092915050565b6000620015888262001124565b9150620015958362001124565b925082821015620015ab57620015aa6200112e565b5b828203905092915050565b7f4e487b7100000000000000000000000000000000000000000000000000000000600052603260045260246000fd5b7f4e487b7100000000000000000000000000000000000000000000000000000000600052603160045260246000fd5b7f4552433732313a2062616c616e636520717565727920666f7220746865207a6560008201527f726f206164647265737300000000000000000000000000000000000000000000602082015250565b600062001672602a83620010a1565b91506200167f8262001614565b604082019050919050565b60006020820190508181036000830152620016a58162001663565b9050919050565b7f4e487b7100000000000000000000000000000000000000000000000000000000600052602260045260246000fd5b60006002820490506001821680620016f457607f821691505b602082108114156200170b576200170a620016ac565b5b50919050565b61413480620017216000396000f3fe6080604052600436106101ee5760003560e01c806355f804b31161010d57806395d89b41116100a0578063c87b56dd1161006f578063c87b56dd146106cf578063d5abeb011461070c578063da3ef23f14610737578063e985e9c514610760578063f2fde38b1461079d576101ee565b806395d89b4114610627578063a22cb46514610652578063b88d4fde1461067b578063c6682862146106a4576101ee565b806370a08231116100dc57806370a082311461057f578063715018a6146105bc5780637f00c7a6146105d35780638da5cb5b146105fc576101ee565b806355f804b3146104c35780635c975abb146104ec5780636352211e146105175780636c0360eb14610554576101ee565b806323b872dd1161018557806342842e0e1161015457806342842e0e146103f7578063438b63001461042057806344a0d68a1461045d5780634f6ccce714610486576101ee565b806323b872dd1461036b5780632f745c59146103945780633ccfd60b146103d157806340c10f19146103db576101ee565b8063095ea7b3116101c1578063095ea7b3146102c157806313faede6146102ea57806318160ddd14610315578063239c70ae14610340576101ee565b806301ffc9a7146101f357806302329a291461023057806306fdde0314610259578063081812fc14610284575b600080fd5b3480156101ff57600080fd5b5061021a60048036038101906102159190612b2e565b6107c6565b6040516102279190612b76565b60405180910390f35b34801561023c57600080fd5b5061025760048036038101906102529190612bbd565b610840565b005b34801561026557600080fd5b5061026e6108d9565b60405161027b9190612c83565b60405180910390f35b34801561029057600080fd5b506102ab60048036038101906102a69190612cdb565b61096b565b6040516102b89190612d49565b60405180910390f35b3480156102cd57600080fd5b506102e860048036038101906102e39190612d90565b6109f0565b005b3480156102f657600080fd5b506102ff610b08565b60405161030c9190612ddf565b60405180910390f35b34801561032157600080fd5b5061032a610b0e565b6040516103379190612ddf565b60405180910390f35b34801561034c57600080fd5b50610355610b1b565b6040516103629190612ddf565b60405180910390f35b34801561037757600080fd5b50610392600480360381019061038d9190612dfa565b610b21565b005b3480156103a057600080fd5b506103bb60048036038101906103b69190612d90565b610b81565b6040516103c89190612ddf565b60405180910390f35b6103d9610c26565b005b6103f560048036038101906103f09190612d90565b610d22565b005b34801561040357600080fd5b5061041e60048036038101906104199190612dfa565b610dd4565b005b34801561042c57600080fd5b5061044760048036038101906104429190612e4d565b610df4565b6040516104549190612f38565b60405180910390f35b34801561046957600080fd5b50610484600480360381019061047f9190612cdb565b610ea2565b005b34801561049257600080fd5b506104ad60048036038101906104a89190612cdb565b610f28565b6040516104ba9190612ddf565b60405180910390f35b3480156104cf57600080fd5b506104ea60048036038101906104e5919061308f565b610f99565b005b3480156104f857600080fd5b5061050161102f565b60405161050e9190612b76565b60405180910390f35b34801561052357600080fd5b5061053e60048036038101906105399190612cdb565b611042565b60405161054b9190612d49565b60405180910390f35b34801561056057600080fd5b506105696110f4565b6040516105769190612c83565b60405180910390f35b34801561058b57600080fd5b506105a660048036038101906105a19190612e4d565b611182565b6040516105b39190612ddf565b60405180910390f35b3480156105c857600080fd5b506105d161123a565b005b3480156105df57600080fd5b506105fa60048036038101906105f59190612cdb565b6112c2565b005b34801561060857600080fd5b50610611611348565b60405161061e9190612d49565b60405180910390f35b34801561063357600080fd5b5061063c611372565b6040516106499190612c83565b60405180910390f35b34801561065e57600080fd5b50610679600480360381019061067491906130d8565b611404565b005b34801561068757600080fd5b506106a2600480360381019061069d91906131b9565b611585565b005b3480156106b057600080fd5b506106b96115e7565b6040516106c69190612c83565b60405180910390f35b3480156106db57600080fd5b506106f660048036038101906106f19190612cdb565b611675565b6040516107039190612c83565b60405180910390f35b34801561071857600080fd5b5061072161171f565b60405161072e9190612ddf565b60405180910390f35b34801561074357600080fd5b5061075e6004803603810190610759919061308f565b611725565b005b34801561076c57600080fd5b506107876004803603810190610782919061323c565b6117bb565b6040516107949190612b76565b60405180910390f35b3480156107a957600080fd5b506107c460048036038101906107bf9190612e4d565b61184f565b005b60007f780e9d63000000000000000000000000000000000000000000000000000000007bffffffffffffffffffffffffffffffffffffffffffffffffffffffff1916827bffffffffffffffffffffffffffffffffffffffffffffffffffffffff1916148061083957506108388261195f565b5b9050919050565b610848611a41565b73ffffffffffffffffffffffffffffffffffffffff16610866611348565b73ffffffffffffffffffffffffffffffffffffffff16146108bc576040517f08c379a00000000000000000000000000000000000000000000000000000000081526004016108b3906132c8565b60405180910390fd5b80601060006101000a81548160ff02191690831515021790555050565b6060600080546108e890613317565b80601f016020809104026020016040519081016040528092919081815260200182805461091490613317565b80156109615780601f1061093657610100808354040283529160200191610961565b820191906000526020600020905b81548152906001019060200180831161094457829003601f168201915b5050505050905090565b600061097682611a49565b6109b5576040517f08c379a00000000000000000000000000000000000000000000000000000000081526004016109ac906133bb565b60405180910390fd5b6004600083815260200190815260200160002060009054906101000a900473ffffffffffffffffffffffffffffffffffffffff169050919050565b60006109fb82611042565b90508073ffffffffffffffffffffffffffffffffffffffff168373ffffffffffffffffffffffffffffffffffffffff161415610a6c576040517f08c379a0000000000000000000000000000000000000000000000000000000008152600401610a639061344d565b60405180910390fd5b8073ffffffffffffffffffffffffffffffffffffffff16610a8b611a41565b73ffffffffffffffffffffffffffffffffffffffff161480610aba5750610ab981610ab4611a41565b6117bb565b5b610af9576040517f08c379a0000000000000000000000000000000000000000000000000000000008152600401610af0906134df565b60405180910390fd5b610b038383611ab5565b505050565b600d5481565b6000600880549050905090565b600f5481565b610b32610b2c611a41565b82611b6e565b610b71576040517f08c379a0000000000000000000000000000000000000000000000000000000008152600401610b6890613571565b60405180910390fd5b610b7c838383611c4c565b505050565b6000610b8c83611182565b8210610bcd576040517f08c379a0000000000000000000000000000000000000000000000000000000008152600401610bc490613603565b60405180910390fd5b600660008473ffffffffffffffffffffffffffffffffffffffff1673ffffffffffffffffffffffffffffffffffffffff168152602001908152602001600020600083815260200190815260200160002054905092915050565b610c2e611a41565b73ffffffffffffffffffffffffffffffffffffffff16610c4c611348565b73ffffffffffffffffffffffffffffffffffffffff1614610ca2576040517f08c379a0000000000000000000000000000000000000000000000000000000008152600401610c99906132c8565b60405180910390fd5b6000610cac611348565b73ffffffffffffffffffffffffffffffffffffffff1647604051610ccf90613654565b60006040518083038185875af1925050503d8060008114610d0c576040519150601f19603f3d011682016040523d82523d6000602084013e610d11565b606091505b5050905080610d1f57600080fd5b50565b6000610d2c610b0e565b9050601060009054906101000a900460ff1615610d4857600080fd5b60008211610d5557600080fd5b600f54821115610d6457600080fd5b600e548282610d739190613698565b1115610d7e57600080fd5b81600d54610d8c91906136ee565b341015610d9857600080fd5b6000600190505b828111610dce57610dbb848284610db69190613698565b611ea8565b8080610dc690613748565b915050610d9f565b50505050565b610def83838360405180602001604052806000815250611585565b505050565b60606000610e0183611182565b905060008167ffffffffffffffff811115610e1f57610e1e612f64565b5b604051908082528060200260200182016040528015610e4d5781602001602082028036833780820191505090505b50905060005b82811015610e9757610e658582610b81565b828281518110610e7857610e77613791565b5b6020026020010181815250508080610e8f90613748565b915050610e53565b508092505050919050565b610eaa611a41565b73ffffffffffffffffffffffffffffffffffffffff16610ec8611348565b73ffffffffffffffffffffffffffffffffffffffff1614610f1e576040517f08c379a0000000000000000000000000000000000000000000000000000000008152600401610f15906132c8565b60405180910390fd5b80600d8190555050565b6000610f32610b0e565b8210610f73576040517f08c379a0000000000000000000000000000000000000000000000000000000008152600401610f6a90613832565b60405180910390fd5b60088281548110610f8757610f86613791565b5b90600052602060002001549050919050565b610fa1611a41565b73ffffffffffffffffffffffffffffffffffffffff16610fbf611348565b73ffffffffffffffffffffffffffffffffffffffff1614611015576040517f08c379a000000000000000000000000000000000000000000000000000000000815260040161100c906132c8565b60405180910390fd5b80600b908051906020019061102b929190612a1f565b5050565b601060009054906101000a900460ff1681565b6000806002600084815260200190815260200160002060009054906101000a900473ffffffffffffffffffffffffffffffffffffffff169050600073ffffffffffffffffffffffffffffffffffffffff168173ffffffffffffffffffffffffffffffffffffffff1614156110eb576040517f08c379a00000000000000000000000000000000000000000000000000000000081526004016110e2906138c4565b60405180910390fd5b80915050919050565b600b805461110190613317565b80601f016020809104026020016040519081016040528092919081815260200182805461112d90613317565b801561117a5780601f1061114f5761010080835404028352916020019161117a565b820191906000526020600020905b81548152906001019060200180831161115d57829003601f168201915b505050505081565b60008073ffffffffffffffffffffffffffffffffffffffff168273ffffffffffffffffffffffffffffffffffffffff1614156111f3576040517f08c379a00000000000000000000000000000000000000000000000000000000081526004016111ea90613956565b60405180910390fd5b600360008373ffffffffffffffffffffffffffffffffffffffff1673ffffffffffffffffffffffffffffffffffffffff168152602001908152602001600020549050919050565b611242611a41565b73ffffffffffffffffffffffffffffffffffffffff16611260611348565b73ffffffffffffffffffffffffffffffffffffffff16146112b6576040517f08c379a00000000000000000000000000000000000000000000000000000000081526004016112ad906132c8565b60405180910390fd5b6112c06000611ec6565b565b6112ca611a41565b73ffffffffffffffffffffffffffffffffffffffff166112e8611348565b73ffffffffffffffffffffffffffffffffffffffff161461133e576040517f08c379a0000000000000000000000000000000000000000000000000000000008152600401611335906132c8565b60405180910390fd5b80600f8190555050565b6000600a60009054906101000a900473ffffffffffffffffffffffffffffffffffffffff16905090565b60606001805461138190613317565b80601f01602080910402602001604051908101604052809291908181526020018280546113ad90613317565b80156113fa5780601f106113cf576101008083540402835291602001916113fa565b820191906000526020600020905b8154815290600101906020018083116113dd57829003601f168201915b5050505050905090565b61140c611a41565b73ffffffffffffffffffffffffffffffffffffffff168273ffffffffffffffffffffffffffffffffffffffff16141561147a576040517f08c379a0000000000000000000000000000000000000000000000000000000008152600401611471906139c2565b60405180910390fd5b8060056000611487611a41565b73ffffffffffffffffffffffffffffffffffffffff1673ffffffffffffffffffffffffffffffffffffffff16815260200190815260200160002060008473ffffffffffffffffffffffffffffffffffffffff1673ffffffffffffffffffffffffffffffffffffffff16815260200190815260200160002060006101000a81548160ff0219169083151502179055508173ffffffffffffffffffffffffffffffffffffffff16611534611a41565b73ffffffffffffffffffffffffffffffffffffffff167f17307eab39ab6107e8899845ad3d59bd9653f200f220920489ca2b5937696c31836040516115799190612b76565b60405180910390a35050565b611596611590611a41565b83611b6e565b6115d5576040517f08c379a00000000000000000000000000000000000000000000000000000000081526004016115cc90613571565b60405180910390fd5b6115e184848484611f8c565b50505050565b600c80546115f490613317565b80601f016020809104026020016040519081016040528092919081815260200182805461162090613317565b801561166d5780601f106116425761010080835404028352916020019161166d565b820191906000526020600020905b81548152906001019060200180831161165057829003601f168201915b505050505081565b606061168082611a49565b6116bf576040517f08c379a00000000000000000000000000000000000000000000000000000000081526004016116b690613a54565b60405180910390fd5b60006116c9611fe8565b905060008151116116e95760405180602001604052806000815250611717565b806116f38461207a565b600c60405160200161170793929190613b44565b6040516020818303038152906040525b915050919050565b600e5481565b61172d611a41565b73ffffffffffffffffffffffffffffffffffffffff1661174b611348565b73ffffffffffffffffffffffffffffffffffffffff16146117a1576040517f08c379a0000000000000000000000000000000000000000000000000000000008152600401611798906132c8565b60405180910390fd5b80600c90805190602001906117b7929190612a1f565b5050565b6000600560008473ffffffffffffffffffffffffffffffffffffffff1673ffffffffffffffffffffffffffffffffffffffff16815260200190815260200160002060008373ffffffffffffffffffffffffffffffffffffffff1673ffffffffffffffffffffffffffffffffffffffff16815260200190815260200160002060009054906101000a900460ff16905092915050565b611857611a41565b73ffffffffffffffffffffffffffffffffffffffff16611875611348565b73ffffffffffffffffffffffffffffffffffffffff16146118cb576040517f08c379a00000000000000000000000000000000000000000000000000000000081526004016118c2906132c8565b60405180910390fd5b600073ffffffffffffffffffffffffffffffffffffffff168173ffffffffffffffffffffffffffffffffffffffff16141561193b576040517f08c379a000000000000000000000000000000000000000000000000000000000815260040161193290613be7565b60405180910390fd5b61194481611ec6565b50565b600080823b905060008111915050919050565b505050565b60007f80ac58cd000000000000000000000000000000000000000000000000000000007bffffffffffffffffffffffffffffffffffffffffffffffffffffffff1916827bffffffffffffffffffffffffffffffffffffffffffffffffffffffff19161480611a2a57507f5b5e139f000000000000000000000000000000000000000000000000000000007bffffffffffffffffffffffffffffffffffffffffffffffffffffffff1916827bffffffffffffffffffffffffffffffffffffffffffffffffffffffff1916145b80611a3a5750611a39826121db565b5b9050919050565b600033905090565b60008073ffffffffffffffffffffffffffffffffffffffff166002600084815260200190815260200160002060009054906101000a900473ffffffffffffffffffffffffffffffffffffffff1673ffffffffffffffffffffffffffffffffffffffff1614159050919050565b816004600083815260200190815260200160002060006101000a81548173ffffffffffffffffffffffffffffffffffffffff021916908373ffffffffffffffffffffffffffffffffffffffff160217905550808273ffffffffffffffffffffffffffffffffffffffff16611b2883611042565b73ffffffffffffffffffffffffffffffffffffffff167f8c5be1e5ebec7d5bd14f71427d1e84f3dd0314c0f7b2291e5b200ac8c7c3b92560405160405180910390a45050565b6000611b7982611a49565b611bb8576040517f08c379a0000000000000000000000000000000000000000000000000000000008152600401611baf90613c79565b60405180910390fd5b6000611bc383611042565b90508073ffffffffffffffffffffffffffffffffffffffff168473ffffffffffffffffffffffffffffffffffffffff161480611c3257508373ffffffffffffffffffffffffffffffffffffffff16611c1a8461096b565b73ffffffffffffffffffffffffffffffffffffffff16145b80611c435750611c4281856117bb565b5b91505092915050565b8273ffffffffffffffffffffffffffffffffffffffff16611c6c82611042565b73ffffffffffffffffffffffffffffffffffffffff1614611cc2576040517f08c379a0000000000000000000000000000000000000000000000000000000008152600401611cb990613d0b565b60405180910390fd5b600073ffffffffffffffffffffffffffffffffffffffff168273ffffffffffffffffffffffffffffffffffffffff161415611d32576040517f08c379a0000000000000000000000000000000000000000000000000000000008152600401611d2990613d9d565b60405180910390fd5b611d3d838383612245565b611d48600082611ab5565b6001600360008573ffffffffffffffffffffffffffffffffffffffff1673ffffffffffffffffffffffffffffffffffffffff1681526020019081526020016000206000828254611d989190613dbd565b925050819055506001600360008473ffffffffffffffffffffffffffffffffffffffff1673ffffffffffffffffffffffffffffffffffffffff1681526020019081526020016000206000828254611def9190613698565b92505081905550816002600083815260200190815260200160002060006101000a81548173ffffffffffffffffffffffffffffffffffffffff021916908373ffffffffffffffffffffffffffffffffffffffff160217905550808273ffffffffffffffffffffffffffffffffffffffff168473ffffffffffffffffffffffffffffffffffffffff167fddf252ad1be2c89b69c2b068fc378daa952ba7f163c4a11628f55a4df523b3ef60405160405180910390a4505050565b611ec2828260405180602001604052806000815250612359565b5050565b6000600a60009054906101000a900473ffffffffffffffffffffffffffffffffffffffff16905081600a60006101000a81548173ffffffffffffffffffffffffffffffffffffffff021916908373ffffffffffffffffffffffffffffffffffffffff1602179055508173ffffffffffffffffffffffffffffffffffffffff168173ffffffffffffffffffffffffffffffffffffffff167f8be0079c531659141344cd1fd0a4f28419497f9722a3daafe3b4186f6b6457e060405160405180910390a35050565b611f97848484611c4c565b611fa3848484846123b4565b611fe2576040517f08c379a0000000000000000000000000000000000000000000000000000000008152600401611fd990613e63565b60405180910390fd5b50505050565b6060600b8054611ff790613317565b80601f016020809104026020016040519081016040528092919081815260200182805461202390613317565b80156120705780601f1061204557610100808354040283529160200191612070565b820191906000526020600020905b81548152906001019060200180831161205357829003601f168201915b5050505050905090565b606060008214156120c2576040518060400160405280600181526020017f300000000000000000000000000000000000000000000000000000000000000081525090506121d6565b600082905060005b600082146120f45780806120dd90613748565b915050600a826120ed9190613eb2565b91506120ca565b60008167ffffffffffffffff8111156121105761210f612f64565b5b6040519080825280601f01601f1916602001820160405280156121425781602001600182028036833780820191505090505b5090505b600085146121cf5760018261215b9190613dbd565b9150600a8561216a9190613ee3565b60306121769190613698565b60f81b81838151811061218c5761218b613791565b5b60200101907effffffffffffffffffffffffffffffffffffffffffffffffffffffffffffff1916908160001a905350600a856121c89190613eb2565b9450612146565b8093505050505b919050565b60007f01ffc9a7000000000000000000000000000000000000000000000000000000007bffffffffffffffffffffffffffffffffffffffffffffffffffffffff1916827bffffffffffffffffffffffffffffffffffffffffffffffffffffffff1916149050919050565b61225083838361195a565b600073ffffffffffffffffffffffffffffffffffffffff168373ffffffffffffffffffffffffffffffffffffffff1614156122935761228e8161254b565b6122d2565b8173ffffffffffffffffffffffffffffffffffffffff168373ffffffffffffffffffffffffffffffffffffffff16146122d1576122d08382612594565b5b5b600073ffffffffffffffffffffffffffffffffffffffff168273ffffffffffffffffffffffffffffffffffffffff1614156123155761231081612701565b612354565b8273ffffffffffffffffffffffffffffffffffffffff168273ffffffffffffffffffffffffffffffffffffffff16146123535761235282826127d2565b5b5b505050565b6123638383612851565b61237060008484846123b4565b6123af576040517f08c379a00000000000000000000000000000000000000000000000000000000081526004016123a690613e63565b60405180910390fd5b505050565b60006123d58473ffffffffffffffffffffffffffffffffffffffff16611947565b1561253e578373ffffffffffffffffffffffffffffffffffffffff1663150b7a026123fe611a41565b8786866040518563ffffffff1660e01b81526004016124209493929190613f69565b602060405180830381600087803b15801561243a57600080fd5b505af192505050801561246b57506040513d601f19601f820116820180604052508101906124689190613fca565b60015b6124ee573d806000811461249b576040519150601f19603f3d011682016040523d82523d6000602084013e6124a0565b606091505b506000815114156124e6576040517f08c379a00000000000000000000000000000000000000000000000000000000081526004016124dd90613e63565b60405180910390fd5b805181602001fd5b63150b7a0260e01b7bffffffffffffffffffffffffffffffffffffffffffffffffffffffff1916817bffffffffffffffffffffffffffffffffffffffffffffffffffffffff191614915050612543565b600190505b949350505050565b6008805490506009600083815260200190815260200160002081905550600881908060018154018082558091505060019003906000526020600020016000909190919091505550565b600060016125a184611182565b6125ab9190613dbd565b9050600060076000848152602001908152602001600020549050818114612690576000600660008673ffffffffffffffffffffffffffffffffffffffff1673ffffffffffffffffffffffffffffffffffffffff168152602001908152602001600020600084815260200190815260200160002054905080600660008773ffffffffffffffffffffffffffffffffffffffff1673ffffffffffffffffffffffffffffffffffffffff168152602001908152602001600020600084815260200190815260200160002081905550816007600083815260200190815260200160002081905550505b6007600084815260200190815260200160002060009055600660008573ffffffffffffffffffffffffffffffffffffffff1673ffffffffffffffffffffffffffffffffffffffff16815260200190815260200160002060008381526020019081526020016000206000905550505050565b600060016008805490506127159190613dbd565b905060006009600084815260200190815260200160002054905060006008838154811061274557612744613791565b5b90600052602060002001549050806008838154811061276757612766613791565b5b9060005260206000200181905550816009600083815260200190815260200160002081905550600960008581526020019081526020016000206000905560088054806127b6576127b5613ff7565b5b6001900381819060005260206000200160009055905550505050565b60006127dd83611182565b905081600660008573ffffffffffffffffffffffffffffffffffffffff1673ffffffffffffffffffffffffffffffffffffffff168152602001908152602001600020600083815260200190815260200160002081905550806007600084815260200190815260200160002081905550505050565b600073ffffffffffffffffffffffffffffffffffffffff168273ffffffffffffffffffffffffffffffffffffffff1614156128c1576040517f08c379a00000000000000000000000000000000000000000000000000000000081526004016128b890614072565b60405180910390fd5b6128ca81611a49565b1561290a576040517f08c379a0000000000000000000000000000000000000000000000000000000008152600401612901906140de565b60405180910390fd5b61291660008383612245565b6001600360008473ffffffffffffffffffffffffffffffffffffffff1673ffffffffffffffffffffffffffffffffffffffff16815260200190815260200160002060008282546129669190613698565b92505081905550816002600083815260200190815260200160002060006101000a81548173ffffffffffffffffffffffffffffffffffffffff021916908373ffffffffffffffffffffffffffffffffffffffff160217905550808273ffffffffffffffffffffffffffffffffffffffff16600073ffffffffffffffffffffffffffffffffffffffff167fddf252ad1be2c89b69c2b068fc378daa952ba7f163c4a11628f55a4df523b3ef60405160405180910390a45050565b828054612a2b90613317565b90600052602060002090601f016020900481019282612a4d5760008555612a94565b82601f10612a6657805160ff1916838001178555612a94565b82800160010185558215612a94579182015b82811115612a93578251825591602001919060010190612a78565b5b509050612aa19190612aa5565b5090565b5b80821115612abe576000816000905550600101612aa6565b5090565b6000604051905090565b600080fd5b600080fd5b60007fffffffff0000000000000000000000000000000000000000000000000000000082169050919050565b612b0b81612ad6565b8114612b1657600080fd5b50565b600081359050612b2881612b02565b92915050565b600060208284031215612b4457612b43612acc565b5b6000612b5284828501612b19565b91505092915050565b60008115159050919050565b612b7081612b5b565b82525050565b6000602082019050612b8b6000830184612b67565b92915050565b612b9a81612b5b565b8114612ba557600080fd5b50565b600081359050612bb781612b91565b92915050565b600060208284031215612bd357612bd2612acc565b5b6000612be184828501612ba8565b91505092915050565b600081519050919050565b600082825260208201905092915050565b60005b83811015612c24578082015181840152602081019050612c09565b83811115612c33576000848401525b50505050565b6000601f19601f8301169050919050565b6000612c5582612bea565b612c5f8185612bf5565b9350612c6f818560208601612c06565b612c7881612c39565b840191505092915050565b60006020820190508181036000830152612c9d8184612c4a565b905092915050565b6000819050919050565b612cb881612ca5565b8114612cc357600080fd5b50565b600081359050612cd581612caf565b92915050565b600060208284031215612cf157612cf0612acc565b5b6000612cff84828501612cc6565b91505092915050565b600073ffffffffffffffffffffffffffffffffffffffff82169050919050565b6000612d3382612d08565b9050919050565b612d4381612d28565b82525050565b6000602082019050612d5e6000830184612d3a565b92915050565b612d6d81612d28565b8114612d7857600080fd5b50565b600081359050612d8a81612d64565b92915050565b60008060408385031215612da757612da6612acc565b5b6000612db585828601612d7b565b9250506020612dc685828601612cc6565b9150509250929050565b612dd981612ca5565b82525050565b6000602082019050612df46000830184612dd0565b92915050565b600080600060608486031215612e1357612e12612acc565b5b6000612e2186828701612d7b565b9350506020612e3286828701612d7b565b9250506040612e4386828701612cc6565b9150509250925092565b600060208284031215612e6357612e62612acc565b5b6000612e7184828501612d7b565b91505092915050565b600081519050919050565b600082825260208201905092915050565b6000819050602082019050919050565b612eaf81612ca5565b82525050565b6000612ec18383612ea6565b60208301905092915050565b6000602082019050919050565b6000612ee582612e7a565b612eef8185612e85565b9350612efa83612e96565b8060005b83811015612f2b578151612f128882612eb5565b9750612f1d83612ecd565b925050600181019050612efe565b5085935050505092915050565b60006020820190508181036000830152612f528184612eda565b905092915050565b600080fd5b600080fd5b7f4e487b7100000000000000000000000000000000000000000000000000000000600052604160045260246000fd5b612f9c82612c39565b810181811067ffffffffffffffff82111715612fbb57612fba612f64565b5b80604052505050565b6000612fce612ac2565b9050612fda8282612f93565b919050565b600067ffffffffffffffff821115612ffa57612ff9612f64565b5b61300382612c39565b9050602081019050919050565b82818337600083830152505050565b600061303261302d84612fdf565b612fc4565b90508281526020810184848401111561304e5761304d612f5f565b5b613059848285613010565b509392505050565b600082601f83011261307657613075612f5a565b5b813561308684826020860161301f565b91505092915050565b6000602082840312156130a5576130a4612acc565b5b600082013567ffffffffffffffff8111156130c3576130c2612ad1565b5b6130cf84828501613061565b91505092915050565b600080604083850312156130ef576130ee612acc565b5b60006130fd85828601612d7b565b925050602061310e85828601612ba8565b9150509250929050565b600067ffffffffffffffff82111561313357613132612f64565b5b61313c82612c39565b9050602081019050919050565b600061315c61315784613118565b612fc4565b90508281526020810184848401111561317857613177612f5f565b5b613183848285613010565b509392505050565b600082601f8301126131a05761319f612f5a565b5b81356131b0848260208601613149565b91505092915050565b600080600080608085870312156131d3576131d2612acc565b5b60006131e187828801612d7b565b94505060206131f287828801612d7b565b935050604061320387828801612cc6565b925050606085013567ffffffffffffffff81111561322457613223612ad1565b5b6132308782880161318b565b91505092959194509250565b6000806040838503121561325357613252612acc565b5b600061326185828601612d7b565b925050602061327285828601612d7b565b9150509250929050565b7f4f776e61626c653a2063616c6c6572206973206e6f7420746865206f776e6572600082015250565b60006132b2602083612bf5565b91506132bd8261327c565b602082019050919050565b600060208201905081810360008301526132e1816132a5565b9050919050565b7f4e487b7100000000000000000000000000000000000000000000000000000000600052602260045260246000fd5b6000600282049050600182168061332f57607f821691505b60208210811415613343576133426132e8565b5b50919050565b7f4552433732313a20617070726f76656420717565727920666f72206e6f6e657860008201527f697374656e7420746f6b656e0000000000000000000000000000000000000000602082015250565b60006133a5602c83612bf5565b91506133b082613349565b604082019050919050565b600060208201905081810360008301526133d481613398565b9050919050565b7f4552433732313a20617070726f76616c20746f2063757272656e74206f776e6560008201527f7200000000000000000000000000000000000000000000000000000000000000602082015250565b6000613437602183612bf5565b9150613442826133db565b604082019050919050565b600060208201905081810360008301526134668161342a565b9050919050565b7f4552433732313a20617070726f76652063616c6c6572206973206e6f74206f7760008201527f6e6572206e6f7220617070726f76656420666f7220616c6c0000000000000000602082015250565b60006134c9603883612bf5565b91506134d48261346d565b604082019050919050565b600060208201905081810360008301526134f8816134bc565b9050919050565b7f4552433732313a207472616e736665722063616c6c6572206973206e6f74206f60008201527f776e6572206e6f7220617070726f766564000000000000000000000000000000602082015250565b600061355b603183612bf5565b9150613566826134ff565b604082019050919050565b6000602082019050818103600083015261358a8161354e565b9050919050565b7f455243373231456e756d657261626c653a206f776e657220696e646578206f7560008201527f74206f6620626f756e6473000000000000000000000000000000000000000000602082015250565b60006135ed602b83612bf5565b91506135f882613591565b604082019050919050565b6000602082019050818103600083015261361c816135e0565b9050919050565b600081905092915050565b50565b600061363e600083613623565b91506136498261362e565b600082019050919050565b600061365f82613631565b9150819050919050565b7f4e487b7100000000000000000000000000000000000000000000000000000000600052601160045260246000fd5b60006136a382612ca5565b91506136ae83612ca5565b9250827fffffffffffffffffffffffffffffffffffffffffffffffffffffffffffffffff038211156136e3576136e2613669565b5b828201905092915050565b60006136f982612ca5565b915061370483612ca5565b9250817fffffffffffffffffffffffffffffffffffffffffffffffffffffffffffffffff048311821515161561373d5761373c613669565b5b828202905092915050565b600061375382612ca5565b91507fffffffffffffffffffffffffffffffffffffffffffffffffffffffffffffffff82141561378657613785613669565b5b600182019050919050565b7f4e487b7100000000000000000000000000000000000000000000000000000000600052603260045260246000fd5b7f455243373231456e756d657261626c653a20676c6f62616c20696e646578206f60008201527f7574206f6620626f756e64730000000000000000000000000000000000000000602082015250565b600061381c602c83612bf5565b9150613827826137c0565b604082019050919050565b6000602082019050818103600083015261384b8161380f565b9050919050565b7f4552433732313a206f776e657220717565727920666f72206e6f6e657869737460008201527f656e7420746f6b656e0000000000000000000000000000000000000000000000602082015250565b60006138ae602983612bf5565b91506138b982613852565b604082019050919050565b600060208201905081810360008301526138dd816138a1565b9050919050565b7f4552433732313a2062616c616e636520717565727920666f7220746865207a6560008201527f726f206164647265737300000000000000000000000000000000000000000000602082015250565b6000613940602a83612bf5565b915061394b826138e4565b604082019050919050565b6000602082019050818103600083015261396f81613933565b9050919050565b7f4552433732313a20617070726f766520746f2063616c6c657200000000000000600082015250565b60006139ac601983612bf5565b91506139b782613976565b602082019050919050565b600060208201905081810360008301526139db8161399f565b9050919050565b7f4552433732314d657461646174613a2055524920717565727920666f72206e6f60008201527f6e6578697374656e7420746f6b656e0000000000000000000000000000000000602082015250565b6000613a3e602f83612bf5565b9150613a49826139e2565b604082019050919050565b60006020820190508181036000830152613a6d81613a31565b9050919050565b600081905092915050565b6000613a8a82612bea565b613a948185613a74565b9350613aa4818560208601612c06565b80840191505092915050565b60008190508160005260206000209050919050565b60008154613ad281613317565b613adc8186613a74565b94506001821660008114613af75760018114613b0857613b3b565b60ff19831686528186019350613b3b565b613b1185613ab0565b60005b83811015613b3357815481890152600182019150602081019050613b14565b838801955050505b50505092915050565b6000613b508286613a7f565b9150613b5c8285613a7f565b9150613b688284613ac5565b9150819050949350505050565b7f4f776e61626c653a206e6577206f776e657220697320746865207a65726f206160008201527f6464726573730000000000000000000000000000000000000000000000000000602082015250565b6000613bd1602683612bf5565b9150613bdc82613b75565b604082019050919050565b60006020820190508181036000830152613c0081613bc4565b9050919050565b7f4552433732313a206f70657261746f7220717565727920666f72206e6f6e657860008201527f697374656e7420746f6b656e0000000000000000000000000000000000000000602082015250565b6000613c63602c83612bf5565b9150613c6e82613c07565b604082019050919050565b60006020820190508181036000830152613c9281613c56565b9050919050565b7f4552433732313a207472616e73666572206f6620746f6b656e2074686174206960008201527f73206e6f74206f776e0000000000000000000000000000000000000000000000602082015250565b6000613cf5602983612bf5565b9150613d0082613c99565b604082019050919050565b60006020820190508181036000830152613d2481613ce8565b9050919050565b7f4552433732313a207472616e7366657220746f20746865207a65726f2061646460008201527f7265737300000000000000000000000000000000000000000000000000000000602082015250565b6000613d87602483612bf5565b9150613d9282613d2b565b604082019050919050565b60006020820190508181036000830152613db681613d7a565b9050919050565b6000613dc882612ca5565b9150613dd383612ca5565b925082821015613de657613de5613669565b5b828203905092915050565b7f4552433732313a207472616e7366657220746f206e6f6e20455243373231526560008201527f63656976657220696d706c656d656e7465720000000000000000000000000000602082015250565b6000613e4d603283612bf5565b9150613e5882613df1565b604082019050919050565b60006020820190508181036000830152613e7c81613e40565b9050919050565b7f4e487b7100000000000000000000000000000000000000000000000000000000600052601260045260246000fd5b6000613ebd82612ca5565b9150613ec883612ca5565b925082613ed857613ed7613e83565b5b828204905092915050565b6000613eee82612ca5565b9150613ef983612ca5565b925082613f0957613f08613e83565b5b828206905092915050565b600081519050919050565b600082825260208201905092915050565b6000613f3b82613f14565b613f458185613f1f565b9350613f55818560208601612c06565b613f5e81612c39565b840191505092915050565b6000608082019050613f7e6000830187612d3a565b613f8b6020830186612d3a565b613f986040830185612dd0565b8181036060830152613faa8184613f30565b905095945050505050565b600081519050613fc481612b02565b92915050565b600060208284031215613fe057613fdf612acc565b5b6000613fee84828501613fb5565b91505092915050565b7f4e487b7100000000000000000000000000000000000000000000000000000000600052603160045260246000fd5b7f4552433732313a206d696e7420746f20746865207a65726f2061646472657373600082015250565b600061405c602083612bf5565b915061406782614026565b602082019050919050565b6000602082019050818103600083015261408b8161404f565b9050919050565b7f4552433732313a20746f6b656e20616c7265616479206d696e74656400000000600082015250565b60006140c8601c83612bf5565b91506140d382614092565b602082019050919050565b600060208201905081810360008301526140f7816140bb565b905091905056fea264697066735822122043fc39b329eff941d9888aa068d8b660da365bde39c44feda8f16cd3b8d61e9a64736f6c63430008090033",
  "immutableReferences": {},
  "source": "// SPDX-License-Identifier: GPL-3.0\n\n// Amended by HashLips\n/**\n    !Disclaimer!\n    These contracts have been used to create tutorials,\n    and was created for the purpose to teach people\n    how to create smart contracts on the blockchain.\n    please review this code on your own before using any of\n    the following code for production.\n    HashLips will not be liable in any way if for the use \n    of the code. That being said, the code has been tested \n    to the best of the developers' knowledge to work as intended.\n*/\n\npragma solidity >=0.7.0 <0.9.0;\n\nimport \"@openzeppelin/contracts/token/ERC721/extensions/ERC721Enumerable.sol\";\nimport \"@openzeppelin/contracts/access/Ownable.sol\";\n\ncontract MetakicksNFT is ERC721Enumerable, Ownable {\n  using Strings for uint256;\n\n  string public baseURI;\n  string public baseExtension = \".json\";\n  uint256 public cost = 0.0 ether;\n  uint256 public maxSupply = 4;\n  uint256 public maxMintAmount = 4;\n  bool public paused = false;\n//   mapping(address => bool) public whitelisted;\n\n  constructor(\n    string memory _name,\n    string memory _symbol,\n    string memory _initBaseURI\n  ) ERC721(_name, _symbol) {\n    setBaseURI(_initBaseURI);\n    mint(msg.sender, 1);\n  }\n\n  // internal\n  function _baseURI() internal view virtual override returns (string memory) {\n    return baseURI;\n  }\n\n  // public\n  function mint(address _to, uint256 _mintAmount) public payable {\n    uint256 supply = totalSupply();\n    require(!paused);\n    require(_mintAmount > 0);\n    require(_mintAmount <= maxMintAmount);\n    require(supply + _mintAmount <= maxSupply);\n    require(msg.value >= cost * _mintAmount);\n\n    // if (msg.sender != owner()) {\n    //     if(whitelisted[msg.sender] != true) {\n    //       require(msg.value >= cost * _mintAmount);\n    //     }\n    // }\n\n    for (uint256 i = 1; i <= _mintAmount; i++) {\n      _safeMint(_to, supply + i);\n    }\n  }\n\n  function walletOfOwner(address _owner)\n    public\n    view\n    returns (uint256[] memory)\n  {\n    uint256 ownerTokenCount = balanceOf(_owner);\n    uint256[] memory tokenIds = new uint256[](ownerTokenCount);\n    for (uint256 i; i < ownerTokenCount; i++) {\n      tokenIds[i] = tokenOfOwnerByIndex(_owner, i);\n    }\n    return tokenIds;\n  }\n\n  function tokenURI(uint256 tokenId)\n    public\n    view\n    virtual\n    override\n    returns (string memory)\n  {\n    require(\n      _exists(tokenId),\n      \"ERC721Metadata: URI query for nonexistent token\"\n    );\n\n    string memory currentBaseURI = _baseURI();\n    return bytes(currentBaseURI).length > 0\n        ? string(abi.encodePacked(currentBaseURI, tokenId.toString(), baseExtension))\n        : \"\";\n  }\n\n  //only owner\n  function setCost(uint256 _newCost) public onlyOwner {\n    cost = _newCost;\n  }\n\n  function setmaxMintAmount(uint256 _newmaxMintAmount) public onlyOwner {\n    maxMintAmount = _newmaxMintAmount;\n  }\n\n  function setBaseURI(string memory _newBaseURI) public onlyOwner {\n    baseURI = _newBaseURI;\n  }\n\n  function setBaseExtension(string memory _newBaseExtension) public onlyOwner {\n    baseExtension = _newBaseExtension;\n  }\n\n  function pause(bool _state) public onlyOwner {\n    paused = _state;\n  }\n \n//  function whitelistUser(address _user) public onlyOwner {\n    // whitelisted[_user] = true;\n//   }\n \n//   function removeWhitelistUser(address _user) public onlyOwner {\n    // whitelisted[_user] = false;\n//   }\n\n  function withdraw() public payable onlyOwner {\n    // This will pay HashLips 5% of the initial sale.\n    // You can remove this if you want, or keep it in to support HashLips and his channel.\n    // =============================================================================\n    //(bool hs, ) = payable(0x943590A42C27D08e3744202c4Ae5eD55c2dE240D).call{value: address(this).balance * 5 / 100}(\"\");\n    //require(hs);\n    // =============================================================================\n    \n    // This will payout the owner 95% of the contract balance.\n    // Do not remove this otherwise you will not be able to withdraw the funds.\n    // =============================================================================\n    (bool os, ) = payable(owner()).call{value: address(this).balance}(\"\");\n    require(os);\n    // =============================================================================\n  }\n}\n\n",
  "sourcePath": "/Users/hartimat/Documents/Energy On Chain/Projects/22-01 HoustonBlockchainDevelopers/22-01-01 Metakicks/metakicks-nft-marketplace/src/contracts/MetakicksNFT.sol",
  "compiler": {
    "name": "solc",
    "version": "0.8.9+commit.e5eed63a.Emscripten.clang"
  },
  "schemaVersion": "3.4.4",
  "updatedAt": "2022-07-18T19:26:34.695Z",
  "networkType": "ethereum",
  "devdoc": {
    "kind": "dev",
    "methods": {
      "approve(address,uint256)": {
        "details": "See {IERC721-approve}."
      },
      "balanceOf(address)": {
        "details": "See {IERC721-balanceOf}."
      },
      "getApproved(uint256)": {
        "details": "See {IERC721-getApproved}."
      },
      "isApprovedForAll(address,address)": {
        "details": "See {IERC721-isApprovedForAll}."
      },
      "name()": {
        "details": "See {IERC721Metadata-name}."
      },
      "owner()": {
        "details": "Returns the address of the current owner."
      },
      "ownerOf(uint256)": {
        "details": "See {IERC721-ownerOf}."
      },
      "renounceOwnership()": {
        "details": "Leaves the contract without owner. It will not be possible to call `onlyOwner` functions anymore. Can only be called by the current owner. NOTE: Renouncing ownership will leave the contract without an owner, thereby removing any functionality that is only available to the owner."
      },
      "safeTransferFrom(address,address,uint256)": {
        "details": "See {IERC721-safeTransferFrom}."
      },
      "safeTransferFrom(address,address,uint256,bytes)": {
        "details": "See {IERC721-safeTransferFrom}."
      },
      "setApprovalForAll(address,bool)": {
        "details": "See {IERC721-setApprovalForAll}."
      },
      "supportsInterface(bytes4)": {
        "details": "See {IERC165-supportsInterface}."
      },
      "symbol()": {
        "details": "See {IERC721Metadata-symbol}."
      },
      "tokenByIndex(uint256)": {
        "details": "See {IERC721Enumerable-tokenByIndex}."
      },
      "tokenOfOwnerByIndex(address,uint256)": {
        "details": "See {IERC721Enumerable-tokenOfOwnerByIndex}."
      },
      "tokenURI(uint256)": {
        "details": "See {IERC721Metadata-tokenURI}."
      },
      "totalSupply()": {
        "details": "See {IERC721Enumerable-totalSupply}."
      },
      "transferFrom(address,address,uint256)": {
        "details": "See {IERC721-transferFrom}."
      },
      "transferOwnership(address)": {
        "details": "Transfers ownership of the contract to a new account (`newOwner`). Can only be called by the current owner."
      }
    },
    "version": 1
  },
  "userdoc": {
    "kind": "user",
    "methods": {},
    "version": 1
  }
}