{
  "contractName": "OpenEmoji",
  "abi": [
    {
      "inputs": [
        {
          "internalType": "string",
          "name": "_name",
          "type": "string"
        },
        {
          "internalType": "string",
          "name": "_symbol",
          "type": "string"
        },
        {
          "internalType": "string",
          "name": "_initBaseURI",
          "type": "string"
        },
        {
          "internalType": "string",
          "name": "_initNotRevealedUri",
          "type": "string"
        },
        {
          "internalType": "uint256",
          "name": "_revealTime",
          "type": "uint256"
        }
      ],
      "stateMutability": "nonpayable",
      "type": "constructor"
    },
    {
      "anonymous": false,
      "inputs": [
        {
          "indexed": true,
          "internalType": "address",
          "name": "owner",
          "type": "address"
        },
        {
          "indexed": true,
          "internalType": "address",
          "name": "approved",
          "type": "address"
        },
        {
          "indexed": true,
          "internalType": "uint256",
          "name": "tokenId",
          "type": "uint256"
        }
      ],
      "name": "Approval",
      "type": "event"
    },
    {
      "anonymous": false,
      "inputs": [
        {
          "indexed": true,
          "internalType": "address",
          "name": "owner",
          "type": "address"
        },
        {
          "indexed": true,
          "internalType": "address",
          "name": "operator",
          "type": "address"
        },
        {
          "indexed": false,
          "internalType": "bool",
          "name": "approved",
          "type": "bool"
        }
      ],
      "name": "ApprovalForAll",
      "type": "event"
    },
    {
      "anonymous": false,
      "inputs": [
        {
          "indexed": true,
          "internalType": "address",
          "name": "previousOwner",
          "type": "address"
        },
        {
          "indexed": true,
          "internalType": "address",
          "name": "newOwner",
          "type": "address"
        }
      ],
      "name": "OwnershipTransferred",
      "type": "event"
    },
    {
      "anonymous": false,
      "inputs": [
        {
          "indexed": true,
          "internalType": "address",
          "name": "from",
          "type": "address"
        },
        {
          "indexed": true,
          "internalType": "address",
          "name": "to",
          "type": "address"
        },
        {
          "indexed": true,
          "internalType": "uint256",
          "name": "tokenId",
          "type": "uint256"
        }
      ],
      "name": "Transfer",
      "type": "event"
    },
    {
      "inputs": [],
      "name": "allowMintingAfter",
      "outputs": [
        {
          "internalType": "uint256",
          "name": "",
          "type": "uint256"
        }
      ],
      "stateMutability": "view",
      "type": "function"
    },
    {
      "inputs": [
        {
          "internalType": "address",
          "name": "to",
          "type": "address"
        },
        {
          "internalType": "uint256",
          "name": "tokenId",
          "type": "uint256"
        }
      ],
      "name": "approve",
      "outputs": [],
      "stateMutability": "nonpayable",
      "type": "function"
    },
    {
      "inputs": [
        {
          "internalType": "address",
          "name": "owner",
          "type": "address"
        }
      ],
      "name": "balanceOf",
      "outputs": [
        {
          "internalType": "uint256",
          "name": "",
          "type": "uint256"
        }
      ],
      "stateMutability": "view",
      "type": "function"
    },
    {
      "inputs": [],
      "name": "baseExtension",
      "outputs": [
        {
          "internalType": "string",
          "name": "",
          "type": "string"
        }
      ],
      "stateMutability": "view",
      "type": "function"
    },
    {
      "inputs": [],
      "name": "cost",
      "outputs": [
        {
          "internalType": "uint256",
          "name": "",
          "type": "uint256"
        }
      ],
      "stateMutability": "view",
      "type": "function"
    },
    {
      "inputs": [
        {
          "internalType": "uint256",
          "name": "tokenId",
          "type": "uint256"
        }
      ],
      "name": "getApproved",
      "outputs": [
        {
          "internalType": "address",
          "name": "",
          "type": "address"
        }
      ],
      "stateMutability": "view",
      "type": "function"
    },
    {
      "inputs": [
        {
          "internalType": "address",
          "name": "owner",
          "type": "address"
        },
        {
          "internalType": "address",
          "name": "operator",
          "type": "address"
        }
      ],
      "name": "isApprovedForAll",
      "outputs": [
        {
          "internalType": "bool",
          "name": "",
          "type": "bool"
        }
      ],
      "stateMutability": "view",
      "type": "function"
    },
    {
      "inputs": [],
      "name": "isPaused",
      "outputs": [
        {
          "internalType": "bool",
          "name": "",
          "type": "bool"
        }
      ],
      "stateMutability": "view",
      "type": "function"
    },
    {
      "inputs": [],
      "name": "isRevealed",
      "outputs": [
        {
          "internalType": "bool",
          "name": "",
          "type": "bool"
        }
      ],
      "stateMutability": "view",
      "type": "function"
    },
    {
      "inputs": [],
      "name": "maxMintAmount",
      "outputs": [
        {
          "internalType": "uint256",
          "name": "",
          "type": "uint256"
        }
      ],
      "stateMutability": "view",
      "type": "function"
    },
    {
      "inputs": [],
      "name": "maxSupply",
      "outputs": [
        {
          "internalType": "uint256",
          "name": "",
          "type": "uint256"
        }
      ],
      "stateMutability": "view",
      "type": "function"
    },
    {
      "inputs": [],
      "name": "name",
      "outputs": [
        {
          "internalType": "string",
          "name": "",
          "type": "string"
        }
      ],
      "stateMutability": "view",
      "type": "function"
    },
    {
      "inputs": [],
      "name": "notRevealedUri",
      "outputs": [
        {
          "internalType": "string",
          "name": "",
          "type": "string"
        }
      ],
      "stateMutability": "view",
      "type": "function"
    },
    {
      "inputs": [],
      "name": "owner",
      "outputs": [
        {
          "internalType": "address",
          "name": "",
          "type": "address"
        }
      ],
      "stateMutability": "view",
      "type": "function"
    },
    {
      "inputs": [
        {
          "internalType": "uint256",
          "name": "tokenId",
          "type": "uint256"
        }
      ],
      "name": "ownerOf",
      "outputs": [
        {
          "internalType": "address",
          "name": "",
          "type": "address"
        }
      ],
      "stateMutability": "view",
      "type": "function"
    },
    {
      "inputs": [],
      "name": "renounceOwnership",
      "outputs": [],
      "stateMutability": "nonpayable",
      "type": "function"
    },
    {
      "inputs": [
        {
          "internalType": "address",
          "name": "from",
          "type": "address"
        },
        {
          "internalType": "address",
          "name": "to",
          "type": "address"
        },
        {
          "internalType": "uint256",
          "name": "tokenId",
          "type": "uint256"
        }
      ],
      "name": "safeTransferFrom",
      "outputs": [],
      "stateMutability": "nonpayable",
      "type": "function"
    },
    {
      "inputs": [
        {
          "internalType": "address",
          "name": "from",
          "type": "address"
        },
        {
          "internalType": "address",
          "name": "to",
          "type": "address"
        },
        {
          "internalType": "uint256",
          "name": "tokenId",
          "type": "uint256"
        },
        {
          "internalType": "bytes",
          "name": "_data",
          "type": "bytes"
        }
      ],
      "name": "safeTransferFrom",
      "outputs": [],
      "stateMutability": "nonpayable",
      "type": "function"
    },
    {
      "inputs": [
        {
          "internalType": "address",
          "name": "operator",
          "type": "address"
        },
        {
          "internalType": "bool",
          "name": "approved",
          "type": "bool"
        }
      ],
      "name": "setApprovalForAll",
      "outputs": [],
      "stateMutability": "nonpayable",
      "type": "function"
    },
    {
      "inputs": [
        {
          "internalType": "bytes4",
          "name": "interfaceId",
          "type": "bytes4"
        }
      ],
      "name": "supportsInterface",
      "outputs": [
        {
          "internalType": "bool",
          "name": "",
          "type": "bool"
        }
      ],
      "stateMutability": "view",
      "type": "function"
    },
    {
      "inputs": [],
      "name": "symbol",
      "outputs": [
        {
          "internalType": "string",
          "name": "",
          "type": "string"
        }
      ],
      "stateMutability": "view",
      "type": "function"
    },
    {
      "inputs": [],
      "name": "timeDeployed",
      "outputs": [
        {
          "internalType": "uint256",
          "name": "",
          "type": "uint256"
        }
      ],
      "stateMutability": "view",
      "type": "function"
    },
    {
      "inputs": [
        {
          "internalType": "uint256",
          "name": "index",
          "type": "uint256"
        }
      ],
      "name": "tokenByIndex",
      "outputs": [
        {
          "internalType": "uint256",
          "name": "",
          "type": "uint256"
        }
      ],
      "stateMutability": "view",
      "type": "function"
    },
    {
      "inputs": [
        {
          "internalType": "address",
          "name": "owner",
          "type": "address"
        },
        {
          "internalType": "uint256",
          "name": "index",
          "type": "uint256"
        }
      ],
      "name": "tokenOfOwnerByIndex",
      "outputs": [
        {
          "internalType": "uint256",
          "name": "",
          "type": "uint256"
        }
      ],
      "stateMutability": "view",
      "type": "function"
    },
    {
      "inputs": [],
      "name": "totalSupply",
      "outputs": [
        {
          "internalType": "uint256",
          "name": "",
          "type": "uint256"
        }
      ],
      "stateMutability": "view",
      "type": "function"
    },
    {
      "inputs": [
        {
          "internalType": "address",
          "name": "from",
          "type": "address"
        },
        {
          "internalType": "address",
          "name": "to",
          "type": "address"
        },
        {
          "internalType": "uint256",
          "name": "tokenId",
          "type": "uint256"
        }
      ],
      "name": "transferFrom",
      "outputs": [],
      "stateMutability": "nonpayable",
      "type": "function"
    },
    {
      "inputs": [
        {
          "internalType": "address",
          "name": "newOwner",
          "type": "address"
        }
      ],
      "name": "transferOwnership",
      "outputs": [],
      "stateMutability": "nonpayable",
      "type": "function"
    },
    {
      "inputs": [
        {
          "internalType": "uint256",
          "name": "_mintAmount",
          "type": "uint256"
        }
      ],
      "name": "mint",
      "outputs": [],
      "stateMutability": "payable",
      "type": "function"
    },
    {
      "inputs": [
        {
          "internalType": "address",
          "name": "_owner",
          "type": "address"
        }
      ],
      "name": "walletOfOwner",
      "outputs": [
        {
          "internalType": "uint256[]",
          "name": "",
          "type": "uint256[]"
        }
      ],
      "stateMutability": "view",
      "type": "function"
    },
    {
      "inputs": [
        {
          "internalType": "uint256",
          "name": "tokenId",
          "type": "uint256"
        }
      ],
      "name": "tokenURI",
      "outputs": [
        {
          "internalType": "string",
          "name": "",
          "type": "string"
        }
      ],
      "stateMutability": "view",
      "type": "function"
    },
    {
      "inputs": [],
      "name": "getSecondsUntilMinting",
      "outputs": [
        {
          "internalType": "uint256",
          "name": "",
          "type": "uint256"
        }
      ],
      "stateMutability": "view",
      "type": "function"
    },
    {
      "inputs": [
        {
          "internalType": "bool",
          "name": "_state",
          "type": "bool"
        }
      ],
      "name": "setIsRevealed",
      "outputs": [],
      "stateMutability": "nonpayable",
      "type": "function"
    },
    {
      "inputs": [
        {
          "internalType": "uint256",
          "name": "_newCost",
          "type": "uint256"
        }
      ],
      "name": "setCost",
      "outputs": [],
      "stateMutability": "nonpayable",
      "type": "function"
    },
    {
      "inputs": [
        {
          "internalType": "uint256",
          "name": "_newmaxMintAmount",
          "type": "uint256"
        }
      ],
      "name": "setmaxMintAmount",
      "outputs": [],
      "stateMutability": "nonpayable",
      "type": "function"
    },
    {
      "inputs": [
        {
          "internalType": "string",
          "name": "_notRevealedURI",
          "type": "string"
        }
      ],
      "name": "setNotRevealedURI",
      "outputs": [],
      "stateMutability": "nonpayable",
      "type": "function"
    },
    {
      "inputs": [
        {
          "internalType": "string",
          "name": "_newBaseURI",
          "type": "string"
        }
      ],
      "name": "setBaseURI",
      "outputs": [],
      "stateMutability": "nonpayable",
      "type": "function"
    },
    {
      "inputs": [
        {
          "internalType": "string",
          "name": "_newBaseExtension",
          "type": "string"
        }
      ],
      "name": "setBaseExtension",
      "outputs": [],
      "stateMutability": "nonpayable",
      "type": "function"
    },
    {
      "inputs": [
        {
          "internalType": "bool",
          "name": "_state",
          "type": "bool"
        }
      ],
      "name": "setIsPaused",
      "outputs": [],
      "stateMutability": "nonpayable",
      "type": "function"
    },
    {
      "inputs": [],
      "name": "withdraw",
      "outputs": [],
      "stateMutability": "payable",
      "type": "function"
    }
  ],
  "bytecode": "0x60806040526040518060400160405280600581526020017f2e6a736f6e000000000000000000000000000000000000000000000000000000815250600c908051906020019062000051929190620003c5565b506000600d55600c600e556005600f5560006011556000601260006101000a81548160ff0219169083151502179055506001601260016101000a81548160ff021916908315150217905550348015620000a957600080fd5b5060405162004f0f38038062004f0f8339818101604052810190620000cf91906200064d565b84848160009080519060200190620000e9929190620003c5565b50806001908051906020019062000102929190620003c5565b50505062000125620001196200017760201b60201c565b6200017f60201b60201c565b42811115620001435742816200013c919062000780565b6011819055505b426010819055506200015b836200024560201b60201c565b6200016c82620002f060201b60201c565b5050505050620008a3565b600033905090565b6000600a60009054906101000a900473ffffffffffffffffffffffffffffffffffffffff16905081600a60006101000a81548173ffffffffffffffffffffffffffffffffffffffff021916908373ffffffffffffffffffffffffffffffffffffffff1602179055508173ffffffffffffffffffffffffffffffffffffffff168173ffffffffffffffffffffffffffffffffffffffff167f8be0079c531659141344cd1fd0a4f28419497f9722a3daafe3b4186f6b6457e060405160405180910390a35050565b620002556200017760201b60201c565b73ffffffffffffffffffffffffffffffffffffffff166200027b6200039b60201b60201c565b73ffffffffffffffffffffffffffffffffffffffff1614620002d4576040517f08c379a0000000000000000000000000000000000000000000000000000000008152600401620002cb906200081c565b60405180910390fd5b80600b9080519060200190620002ec929190620003c5565b5050565b620003006200017760201b60201c565b73ffffffffffffffffffffffffffffffffffffffff16620003266200039b60201b60201c565b73ffffffffffffffffffffffffffffffffffffffff16146200037f576040517f08c379a000000000000000000000000000000000000000000000000000000000815260040162000376906200081c565b60405180910390fd5b806013908051906020019062000397929190620003c5565b5050565b6000600a60009054906101000a900473ffffffffffffffffffffffffffffffffffffffff16905090565b828054620003d3906200086d565b90600052602060002090601f016020900481019282620003f7576000855562000443565b82601f106200041257805160ff191683800117855562000443565b8280016001018555821562000443579182015b828111156200044257825182559160200191906001019062000425565b5b50905062000452919062000456565b5090565b5b808211156200047157600081600090555060010162000457565b5090565b6000604051905090565b600080fd5b600080fd5b600080fd5b600080fd5b6000601f19601f8301169050919050565b7f4e487b7100000000000000000000000000000000000000000000000000000000600052604160045260246000fd5b620004de8262000493565b810181811067ffffffffffffffff821117156200050057620004ff620004a4565b5b80604052505050565b60006200051562000475565b9050620005238282620004d3565b919050565b600067ffffffffffffffff821115620005465762000545620004a4565b5b620005518262000493565b9050602081019050919050565b60005b838110156200057e57808201518184015260208101905062000561565b838111156200058e576000848401525b50505050565b6000620005ab620005a58462000528565b62000509565b905082815260208101848484011115620005ca57620005c96200048e565b5b620005d78482856200055e565b509392505050565b600082601f830112620005f757620005f662000489565b5b81516200060984826020860162000594565b91505092915050565b6000819050919050565b620006278162000612565b81146200063357600080fd5b50565b60008151905062000647816200061c565b92915050565b600080600080600060a086880312156200066c576200066b6200047f565b5b600086015167ffffffffffffffff8111156200068d576200068c62000484565b5b6200069b88828901620005df565b955050602086015167ffffffffffffffff811115620006bf57620006be62000484565b5b620006cd88828901620005df565b945050604086015167ffffffffffffffff811115620006f157620006f062000484565b5b620006ff88828901620005df565b935050606086015167ffffffffffffffff81111562000723576200072262000484565b5b6200073188828901620005df565b9250506080620007448882890162000636565b9150509295509295909350565b7f4e487b7100000000000000000000000000000000000000000000000000000000600052601160045260246000fd5b60006200078d8262000612565b91506200079a8362000612565b925082821015620007b057620007af62000751565b5b828203905092915050565b600082825260208201905092915050565b7f4f776e61626c653a2063616c6c6572206973206e6f7420746865206f776e6572600082015250565b600062000804602083620007bb565b91506200081182620007cc565b602082019050919050565b600060208201905081810360008301526200083781620007f5565b9050919050565b7f4e487b7100000000000000000000000000000000000000000000000000000000600052602260045260246000fd5b600060028204905060018216806200088657607f821691505b602082108114156200089d576200089c6200083e565b5b50919050565b61465c80620008b36000396000f3fe6080604052600436106102305760003560e01c806355f804b31161012e578063a75052cb116100ab578063d5abeb011161006f578063d5abeb0114610823578063da3ef23f1461084e578063e985e9c514610877578063f2c4ce1e146108b4578063f2fde38b146108dd57610230565b8063a75052cb1461073c578063b187bd2614610767578063b88d4fde14610792578063c6682862146107bb578063c87b56dd146107e657610230565b8063872bdcdb116100f2578063872bdcdb146106765780638da5cb5b146106a157806395d89b41146106cc578063a0712d68146106f7578063a22cb4651461071357610230565b806355f804b3146105935780636352211e146105bc57806370a08231146105f9578063715018a6146106365780637f00c7a61461064d57610230565b806323b872dd116101bc578063438b630011610180578063438b63001461049c57806344a0d68a146104d957806349a5980a146105025780634f6ccce71461052b57806354214f691461056857610230565b806323b872dd146103da578063240976bf146104035780632f745c591461042c5780633ccfd60b1461046957806342842e0e1461047357610230565b8063095ea7b311610203578063095ea7b31461030557806313faede61461032e57806318160ddd1461035957806319188c3514610384578063239c70ae146103af57610230565b806301ffc9a71461023557806306fdde0314610272578063081812fc1461029d578063081c8c44146102da575b600080fd5b34801561024157600080fd5b5061025c60048036038101906102579190612f7e565b610906565b6040516102699190612fc6565b60405180910390f35b34801561027e57600080fd5b50610287610980565b604051610294919061307a565b60405180910390f35b3480156102a957600080fd5b506102c460048036038101906102bf91906130d2565b610a12565b6040516102d19190613140565b60405180910390f35b3480156102e657600080fd5b506102ef610a97565b6040516102fc919061307a565b60405180910390f35b34801561031157600080fd5b5061032c60048036038101906103279190613187565b610b25565b005b34801561033a57600080fd5b50610343610c3d565b60405161035091906131d6565b60405180910390f35b34801561036557600080fd5b5061036e610c43565b60405161037b91906131d6565b60405180910390f35b34801561039057600080fd5b50610399610c50565b6040516103a691906131d6565b60405180910390f35b3480156103bb57600080fd5b506103c4610c56565b6040516103d191906131d6565b60405180910390f35b3480156103e657600080fd5b5061040160048036038101906103fc91906131f1565b610c5c565b005b34801561040f57600080fd5b5061042a60048036038101906104259190613270565b610cbc565b005b34801561043857600080fd5b50610453600480360381019061044e9190613187565b610d55565b60405161046091906131d6565b60405180910390f35b610471610dfa565b005b34801561047f57600080fd5b5061049a600480360381019061049591906131f1565b610eef565b005b3480156104a857600080fd5b506104c360048036038101906104be919061329d565b610f0f565b6040516104d09190613388565b60405180910390f35b3480156104e557600080fd5b5061050060048036038101906104fb91906130d2565b610fbd565b005b34801561050e57600080fd5b5061052960048036038101906105249190613270565b611043565b005b34801561053757600080fd5b50610552600480360381019061054d91906130d2565b6110dc565b60405161055f91906131d6565b60405180910390f35b34801561057457600080fd5b5061057d61114d565b60405161058a9190612fc6565b60405180910390f35b34801561059f57600080fd5b506105ba60048036038101906105b591906134df565b611160565b005b3480156105c857600080fd5b506105e360048036038101906105de91906130d2565b6111f6565b6040516105f09190613140565b60405180910390f35b34801561060557600080fd5b50610620600480360381019061061b919061329d565b6112a8565b60405161062d91906131d6565b60405180910390f35b34801561064257600080fd5b5061064b611360565b005b34801561065957600080fd5b50610674600480360381019061066f91906130d2565b6113e8565b005b34801561068257600080fd5b5061068b61146e565b60405161069891906131d6565b60405180910390f35b3480156106ad57600080fd5b506106b6611474565b6040516106c39190613140565b60405180910390f35b3480156106d857600080fd5b506106e161149e565b6040516106ee919061307a565b60405180910390f35b610711600480360381019061070c91906130d2565b611530565b005b34801561071f57600080fd5b5061073a60048036038101906107359190613528565b6116b9565b005b34801561074857600080fd5b5061075161183a565b60405161075e91906131d6565b60405180910390f35b34801561077357600080fd5b5061077c61187d565b6040516107899190612fc6565b60405180910390f35b34801561079e57600080fd5b506107b960048036038101906107b49190613609565b611890565b005b3480156107c757600080fd5b506107d06118f2565b6040516107dd919061307a565b60405180910390f35b3480156107f257600080fd5b5061080d600480360381019061080891906130d2565b611980565b60405161081a919061307a565b60405180910390f35b34801561082f57600080fd5b50610838611ad9565b60405161084591906131d6565b60405180910390f35b34801561085a57600080fd5b50610875600480360381019061087091906134df565b611adf565b005b34801561088357600080fd5b5061089e6004803603810190610899919061368c565b611b75565b6040516108ab9190612fc6565b60405180910390f35b3480156108c057600080fd5b506108db60048036038101906108d691906134df565b611c09565b005b3480156108e957600080fd5b5061090460048036038101906108ff919061329d565b611c9f565b005b60007f780e9d63000000000000000000000000000000000000000000000000000000007bffffffffffffffffffffffffffffffffffffffffffffffffffffffff1916827bffffffffffffffffffffffffffffffffffffffffffffffffffffffff19161480610979575061097882611d97565b5b9050919050565b60606000805461098f906136fb565b80601f01602080910402602001604051908101604052809291908181526020018280546109bb906136fb565b8015610a085780601f106109dd57610100808354040283529160200191610a08565b820191906000526020600020905b8154815290600101906020018083116109eb57829003601f168201915b5050505050905090565b6000610a1d82611e79565b610a5c576040517f08c379a0000000000000000000000000000000000000000000000000000000008152600401610a539061379f565b60405180910390fd5b6004600083815260200190815260200160002060009054906101000a900473ffffffffffffffffffffffffffffffffffffffff169050919050565b60138054610aa4906136fb565b80601f0160208091040260200160405190810160405280929190818152602001828054610ad0906136fb565b8015610b1d5780601f10610af257610100808354040283529160200191610b1d565b820191906000526020600020905b815481529060010190602001808311610b0057829003601f168201915b505050505081565b6000610b30826111f6565b90508073ffffffffffffffffffffffffffffffffffffffff168373ffffffffffffffffffffffffffffffffffffffff161415610ba1576040517f08c379a0000000000000000000000000000000000000000000000000000000008152600401610b9890613831565b60405180910390fd5b8073ffffffffffffffffffffffffffffffffffffffff16610bc0611ee5565b73ffffffffffffffffffffffffffffffffffffffff161480610bef5750610bee81610be9611ee5565b611b75565b5b610c2e576040517f08c379a0000000000000000000000000000000000000000000000000000000008152600401610c25906138c3565b60405180910390fd5b610c388383611eed565b505050565b600d5481565b6000600880549050905090565b60105481565b600f5481565b610c6d610c67611ee5565b82611fa6565b610cac576040517f08c379a0000000000000000000000000000000000000000000000000000000008152600401610ca390613955565b60405180910390fd5b610cb7838383612084565b505050565b610cc4611ee5565b73ffffffffffffffffffffffffffffffffffffffff16610ce2611474565b73ffffffffffffffffffffffffffffffffffffffff1614610d38576040517f08c379a0000000000000000000000000000000000000000000000000000000008152600401610d2f906139c1565b60405180910390fd5b80601260006101000a81548160ff02191690831515021790555050565b6000610d60836112a8565b8210610da1576040517f08c379a0000000000000000000000000000000000000000000000000000000008152600401610d9890613a53565b60405180910390fd5b600660008473ffffffffffffffffffffffffffffffffffffffff1673ffffffffffffffffffffffffffffffffffffffff168152602001908152602001600020600083815260200190815260200160002054905092915050565b610e02611ee5565b73ffffffffffffffffffffffffffffffffffffffff16610e20611474565b73ffffffffffffffffffffffffffffffffffffffff1614610e76576040517f08c379a0000000000000000000000000000000000000000000000000000000008152600401610e6d906139c1565b60405180910390fd5b60003373ffffffffffffffffffffffffffffffffffffffff1647604051610e9c90613aa4565b60006040518083038185875af1925050503d8060008114610ed9576040519150601f19603f3d011682016040523d82523d6000602084013e610ede565b606091505b5050905080610eec57600080fd5b50565b610f0a83838360405180602001604052806000815250611890565b505050565b60606000610f1c836112a8565b905060008167ffffffffffffffff811115610f3a57610f396133b4565b5b604051908082528060200260200182016040528015610f685781602001602082028036833780820191505090505b50905060005b82811015610fb257610f808582610d55565b828281518110610f9357610f92613ab9565b5b6020026020010181815250508080610faa90613b17565b915050610f6e565b508092505050919050565b610fc5611ee5565b73ffffffffffffffffffffffffffffffffffffffff16610fe3611474565b73ffffffffffffffffffffffffffffffffffffffff1614611039576040517f08c379a0000000000000000000000000000000000000000000000000000000008152600401611030906139c1565b60405180910390fd5b80600d8190555050565b61104b611ee5565b73ffffffffffffffffffffffffffffffffffffffff16611069611474565b73ffffffffffffffffffffffffffffffffffffffff16146110bf576040517f08c379a00000000000000000000000000000000000000000000000000000000081526004016110b6906139c1565b60405180910390fd5b80601260016101000a81548160ff02191690831515021790555050565b60006110e6610c43565b8210611127576040517f08c379a000000000000000000000000000000000000000000000000000000000815260040161111e90613bd2565b60405180910390fd5b6008828154811061113b5761113a613ab9565b5b90600052602060002001549050919050565b601260019054906101000a900460ff1681565b611168611ee5565b73ffffffffffffffffffffffffffffffffffffffff16611186611474565b73ffffffffffffffffffffffffffffffffffffffff16146111dc576040517f08c379a00000000000000000000000000000000000000000000000000000000081526004016111d3906139c1565b60405180910390fd5b80600b90805190602001906111f2929190612e6f565b5050565b6000806002600084815260200190815260200160002060009054906101000a900473ffffffffffffffffffffffffffffffffffffffff169050600073ffffffffffffffffffffffffffffffffffffffff168173ffffffffffffffffffffffffffffffffffffffff16141561129f576040517f08c379a000000000000000000000000000000000000000000000000000000000815260040161129690613c64565b60405180910390fd5b80915050919050565b60008073ffffffffffffffffffffffffffffffffffffffff168273ffffffffffffffffffffffffffffffffffffffff161415611319576040517f08c379a000000000000000000000000000000000000000000000000000000000815260040161131090613cf6565b60405180910390fd5b600360008373ffffffffffffffffffffffffffffffffffffffff1673ffffffffffffffffffffffffffffffffffffffff168152602001908152602001600020549050919050565b611368611ee5565b73ffffffffffffffffffffffffffffffffffffffff16611386611474565b73ffffffffffffffffffffffffffffffffffffffff16146113dc576040517f08c379a00000000000000000000000000000000000000000000000000000000081526004016113d3906139c1565b60405180910390fd5b6113e660006122e0565b565b6113f0611ee5565b73ffffffffffffffffffffffffffffffffffffffff1661140e611474565b73ffffffffffffffffffffffffffffffffffffffff1614611464576040517f08c379a000000000000000000000000000000000000000000000000000000000815260040161145b906139c1565b60405180910390fd5b80600f8190555050565b60115481565b6000600a60009054906101000a900473ffffffffffffffffffffffffffffffffffffffff16905090565b6060600180546114ad906136fb565b80601f01602080910402602001604051908101604052809291908181526020018280546114d9906136fb565b80156115265780601f106114fb57610100808354040283529160200191611526565b820191906000526020600020905b81548152906001019060200180831161150957829003601f168201915b5050505050905090565b6011546010546115409190613d16565b421015611582576040517f08c379a000000000000000000000000000000000000000000000000000000000815260040161157990613db8565b60405180910390fd5b600561158d336112a8565b106115cd576040517f08c379a00000000000000000000000000000000000000000000000000000000081526004016115c490613e24565b60405180910390fd5b60006115d7610c43565b9050601260009054906101000a900460ff16156115f357600080fd5b6000821161160057600080fd5b600f5482111561160f57600080fd5b600e54828261161e9190613d16565b111561162957600080fd5b611631611474565b73ffffffffffffffffffffffffffffffffffffffff163373ffffffffffffffffffffffffffffffffffffffff161461167e5781600d546116719190613e44565b34101561167d57600080fd5b5b6000600190505b8281116116b4576116a133828461169c9190613d16565b6123a6565b80806116ac90613b17565b915050611685565b505050565b6116c1611ee5565b73ffffffffffffffffffffffffffffffffffffffff168273ffffffffffffffffffffffffffffffffffffffff16141561172f576040517f08c379a000000000000000000000000000000000000000000000000000000000815260040161172690613eea565b60405180910390fd5b806005600061173c611ee5565b73ffffffffffffffffffffffffffffffffffffffff1673ffffffffffffffffffffffffffffffffffffffff16815260200190815260200160002060008473ffffffffffffffffffffffffffffffffffffffff1673ffffffffffffffffffffffffffffffffffffffff16815260200190815260200160002060006101000a81548160ff0219169083151502179055508173ffffffffffffffffffffffffffffffffffffffff166117e9611ee5565b73ffffffffffffffffffffffffffffffffffffffff167f17307eab39ab6107e8899845ad3d59bd9653f200f220920489ca2b5937696c318360405161182e9190612fc6565b60405180910390a35050565b600060115460105461184c9190613d16565b42101561187557426011546010546118649190613d16565b61186e9190613f0a565b905061187a565b600090505b90565b601260009054906101000a900460ff1681565b6118a161189b611ee5565b83611fa6565b6118e0576040517f08c379a00000000000000000000000000000000000000000000000000000000081526004016118d790613955565b60405180910390fd5b6118ec848484846123c4565b50505050565b600c80546118ff906136fb565b80601f016020809104026020016040519081016040528092919081815260200182805461192b906136fb565b80156119785780601f1061194d57610100808354040283529160200191611978565b820191906000526020600020905b81548152906001019060200180831161195b57829003601f168201915b505050505081565b606061198b82611e79565b6119ca576040517f08c379a00000000000000000000000000000000000000000000000000000000081526004016119c190613fb0565b60405180910390fd5b60001515601260019054906101000a900460ff1615151415611a7857601380546119f3906136fb565b80601f0160208091040260200160405190810160405280929190818152602001828054611a1f906136fb565b8015611a6c5780601f10611a4157610100808354040283529160200191611a6c565b820191906000526020600020905b815481529060010190602001808311611a4f57829003601f168201915b50505050509050611ad4565b6000611a82612420565b90506000815111611aa25760405180602001604052806000815250611ad0565b80611aac846124b2565b600c604051602001611ac0939291906140a0565b6040516020818303038152906040525b9150505b919050565b600e5481565b611ae7611ee5565b73ffffffffffffffffffffffffffffffffffffffff16611b05611474565b73ffffffffffffffffffffffffffffffffffffffff1614611b5b576040517f08c379a0000000000000000000000000000000000000000000000000000000008152600401611b52906139c1565b60405180910390fd5b80600c9080519060200190611b71929190612e6f565b5050565b6000600560008473ffffffffffffffffffffffffffffffffffffffff1673ffffffffffffffffffffffffffffffffffffffff16815260200190815260200160002060008373ffffffffffffffffffffffffffffffffffffffff1673ffffffffffffffffffffffffffffffffffffffff16815260200190815260200160002060009054906101000a900460ff16905092915050565b611c11611ee5565b73ffffffffffffffffffffffffffffffffffffffff16611c2f611474565b73ffffffffffffffffffffffffffffffffffffffff1614611c85576040517f08c379a0000000000000000000000000000000000000000000000000000000008152600401611c7c906139c1565b60405180910390fd5b8060139080519060200190611c9b929190612e6f565b5050565b611ca7611ee5565b73ffffffffffffffffffffffffffffffffffffffff16611cc5611474565b73ffffffffffffffffffffffffffffffffffffffff1614611d1b576040517f08c379a0000000000000000000000000000000000000000000000000000000008152600401611d12906139c1565b60405180910390fd5b600073ffffffffffffffffffffffffffffffffffffffff168173ffffffffffffffffffffffffffffffffffffffff161415611d8b576040517f08c379a0000000000000000000000000000000000000000000000000000000008152600401611d8290614143565b60405180910390fd5b611d94816122e0565b50565b60007f80ac58cd000000000000000000000000000000000000000000000000000000007bffffffffffffffffffffffffffffffffffffffffffffffffffffffff1916827bffffffffffffffffffffffffffffffffffffffffffffffffffffffff19161480611e6257507f5b5e139f000000000000000000000000000000000000000000000000000000007bffffffffffffffffffffffffffffffffffffffffffffffffffffffff1916827bffffffffffffffffffffffffffffffffffffffffffffffffffffffff1916145b80611e725750611e7182612613565b5b9050919050565b60008073ffffffffffffffffffffffffffffffffffffffff166002600084815260200190815260200160002060009054906101000a900473ffffffffffffffffffffffffffffffffffffffff1673ffffffffffffffffffffffffffffffffffffffff1614159050919050565b600033905090565b816004600083815260200190815260200160002060006101000a81548173ffffffffffffffffffffffffffffffffffffffff021916908373ffffffffffffffffffffffffffffffffffffffff160217905550808273ffffffffffffffffffffffffffffffffffffffff16611f60836111f6565b73ffffffffffffffffffffffffffffffffffffffff167f8c5be1e5ebec7d5bd14f71427d1e84f3dd0314c0f7b2291e5b200ac8c7c3b92560405160405180910390a45050565b6000611fb182611e79565b611ff0576040517f08c379a0000000000000000000000000000000000000000000000000000000008152600401611fe7906141d5565b60405180910390fd5b6000611ffb836111f6565b90508073ffffffffffffffffffffffffffffffffffffffff168473ffffffffffffffffffffffffffffffffffffffff16148061206a57508373ffffffffffffffffffffffffffffffffffffffff1661205284610a12565b73ffffffffffffffffffffffffffffffffffffffff16145b8061207b575061207a8185611b75565b5b91505092915050565b8273ffffffffffffffffffffffffffffffffffffffff166120a4826111f6565b73ffffffffffffffffffffffffffffffffffffffff16146120fa576040517f08c379a00000000000000000000000000000000000000000000000000000000081526004016120f190614267565b60405180910390fd5b600073ffffffffffffffffffffffffffffffffffffffff168273ffffffffffffffffffffffffffffffffffffffff16141561216a576040517f08c379a0000000000000000000000000000000000000000000000000000000008152600401612161906142f9565b60405180910390fd5b61217583838361267d565b612180600082611eed565b6001600360008573ffffffffffffffffffffffffffffffffffffffff1673ffffffffffffffffffffffffffffffffffffffff16815260200190815260200160002060008282546121d09190613f0a565b925050819055506001600360008473ffffffffffffffffffffffffffffffffffffffff1673ffffffffffffffffffffffffffffffffffffffff16815260200190815260200160002060008282546122279190613d16565b92505081905550816002600083815260200190815260200160002060006101000a81548173ffffffffffffffffffffffffffffffffffffffff021916908373ffffffffffffffffffffffffffffffffffffffff160217905550808273ffffffffffffffffffffffffffffffffffffffff168473ffffffffffffffffffffffffffffffffffffffff167fddf252ad1be2c89b69c2b068fc378daa952ba7f163c4a11628f55a4df523b3ef60405160405180910390a4505050565b6000600a60009054906101000a900473ffffffffffffffffffffffffffffffffffffffff16905081600a60006101000a81548173ffffffffffffffffffffffffffffffffffffffff021916908373ffffffffffffffffffffffffffffffffffffffff1602179055508173ffffffffffffffffffffffffffffffffffffffff168173ffffffffffffffffffffffffffffffffffffffff167f8be0079c531659141344cd1fd0a4f28419497f9722a3daafe3b4186f6b6457e060405160405180910390a35050565b6123c0828260405180602001604052806000815250612791565b5050565b6123cf848484612084565b6123db848484846127ec565b61241a576040517f08c379a00000000000000000000000000000000000000000000000000000000081526004016124119061438b565b60405180910390fd5b50505050565b6060600b805461242f906136fb565b80601f016020809104026020016040519081016040528092919081815260200182805461245b906136fb565b80156124a85780601f1061247d576101008083540402835291602001916124a8565b820191906000526020600020905b81548152906001019060200180831161248b57829003601f168201915b5050505050905090565b606060008214156124fa576040518060400160405280600181526020017f3000000000000000000000000000000000000000000000000000000000000000815250905061260e565b600082905060005b6000821461252c57808061251590613b17565b915050600a8261252591906143da565b9150612502565b60008167ffffffffffffffff811115612548576125476133b4565b5b6040519080825280601f01601f19166020018201604052801561257a5781602001600182028036833780820191505090505b5090505b60008514612607576001826125939190613f0a565b9150600a856125a2919061440b565b60306125ae9190613d16565b60f81b8183815181106125c4576125c3613ab9565b5b60200101907effffffffffffffffffffffffffffffffffffffffffffffffffffffffffffff1916908160001a905350600a8561260091906143da565b945061257e565b8093505050505b919050565b60007f01ffc9a7000000000000000000000000000000000000000000000000000000007bffffffffffffffffffffffffffffffffffffffffffffffffffffffff1916827bffffffffffffffffffffffffffffffffffffffffffffffffffffffff1916149050919050565b612688838383612983565b600073ffffffffffffffffffffffffffffffffffffffff168373ffffffffffffffffffffffffffffffffffffffff1614156126cb576126c681612988565b61270a565b8173ffffffffffffffffffffffffffffffffffffffff168373ffffffffffffffffffffffffffffffffffffffff16146127095761270883826129d1565b5b5b600073ffffffffffffffffffffffffffffffffffffffff168273ffffffffffffffffffffffffffffffffffffffff16141561274d5761274881612b3e565b61278c565b8273ffffffffffffffffffffffffffffffffffffffff168273ffffffffffffffffffffffffffffffffffffffff161461278b5761278a8282612c0f565b5b5b505050565b61279b8383612c8e565b6127a860008484846127ec565b6127e7576040517f08c379a00000000000000000000000000000000000000000000000000000000081526004016127de9061438b565b60405180910390fd5b505050565b600061280d8473ffffffffffffffffffffffffffffffffffffffff16612e5c565b15612976578373ffffffffffffffffffffffffffffffffffffffff1663150b7a02612836611ee5565b8786866040518563ffffffff1660e01b81526004016128589493929190614491565b602060405180830381600087803b15801561287257600080fd5b505af19250505080156128a357506040513d601f19601f820116820180604052508101906128a091906144f2565b60015b612926573d80600081146128d3576040519150601f19603f3d011682016040523d82523d6000602084013e6128d8565b606091505b5060008151141561291e576040517f08c379a00000000000000000000000000000000000000000000000000000000081526004016129159061438b565b60405180910390fd5b805181602001fd5b63150b7a0260e01b7bffffffffffffffffffffffffffffffffffffffffffffffffffffffff1916817bffffffffffffffffffffffffffffffffffffffffffffffffffffffff19161491505061297b565b600190505b949350505050565b505050565b6008805490506009600083815260200190815260200160002081905550600881908060018154018082558091505060019003906000526020600020016000909190919091505550565b600060016129de846112a8565b6129e89190613f0a565b9050600060076000848152602001908152602001600020549050818114612acd576000600660008673ffffffffffffffffffffffffffffffffffffffff1673ffffffffffffffffffffffffffffffffffffffff168152602001908152602001600020600084815260200190815260200160002054905080600660008773ffffffffffffffffffffffffffffffffffffffff1673ffffffffffffffffffffffffffffffffffffffff168152602001908152602001600020600084815260200190815260200160002081905550816007600083815260200190815260200160002081905550505b6007600084815260200190815260200160002060009055600660008573ffffffffffffffffffffffffffffffffffffffff1673ffffffffffffffffffffffffffffffffffffffff16815260200190815260200160002060008381526020019081526020016000206000905550505050565b60006001600880549050612b529190613f0a565b9050600060096000848152602001908152602001600020549050600060088381548110612b8257612b81613ab9565b5b906000526020600020015490508060088381548110612ba457612ba3613ab9565b5b906000526020600020018190555081600960008381526020019081526020016000208190555060096000858152602001908152602001600020600090556008805480612bf357612bf261451f565b5b6001900381819060005260206000200160009055905550505050565b6000612c1a836112a8565b905081600660008573ffffffffffffffffffffffffffffffffffffffff1673ffffffffffffffffffffffffffffffffffffffff168152602001908152602001600020600083815260200190815260200160002081905550806007600084815260200190815260200160002081905550505050565b600073ffffffffffffffffffffffffffffffffffffffff168273ffffffffffffffffffffffffffffffffffffffff161415612cfe576040517f08c379a0000000000000000000000000000000000000000000000000000000008152600401612cf59061459a565b60405180910390fd5b612d0781611e79565b15612d47576040517f08c379a0000000000000000000000000000000000000000000000000000000008152600401612d3e90614606565b60405180910390fd5b612d536000838361267d565b6001600360008473ffffffffffffffffffffffffffffffffffffffff1673ffffffffffffffffffffffffffffffffffffffff1681526020019081526020016000206000828254612da39190613d16565b92505081905550816002600083815260200190815260200160002060006101000a81548173ffffffffffffffffffffffffffffffffffffffff021916908373ffffffffffffffffffffffffffffffffffffffff160217905550808273ffffffffffffffffffffffffffffffffffffffff16600073ffffffffffffffffffffffffffffffffffffffff167fddf252ad1be2c89b69c2b068fc378daa952ba7f163c4a11628f55a4df523b3ef60405160405180910390a45050565b600080823b905060008111915050919050565b828054612e7b906136fb565b90600052602060002090601f016020900481019282612e9d5760008555612ee4565b82601f10612eb657805160ff1916838001178555612ee4565b82800160010185558215612ee4579182015b82811115612ee3578251825591602001919060010190612ec8565b5b509050612ef19190612ef5565b5090565b5b80821115612f0e576000816000905550600101612ef6565b5090565b6000604051905090565b600080fd5b600080fd5b60007fffffffff0000000000000000000000000000000000000000000000000000000082169050919050565b612f5b81612f26565b8114612f6657600080fd5b50565b600081359050612f7881612f52565b92915050565b600060208284031215612f9457612f93612f1c565b5b6000612fa284828501612f69565b91505092915050565b60008115159050919050565b612fc081612fab565b82525050565b6000602082019050612fdb6000830184612fb7565b92915050565b600081519050919050565b600082825260208201905092915050565b60005b8381101561301b578082015181840152602081019050613000565b8381111561302a576000848401525b50505050565b6000601f19601f8301169050919050565b600061304c82612fe1565b6130568185612fec565b9350613066818560208601612ffd565b61306f81613030565b840191505092915050565b600060208201905081810360008301526130948184613041565b905092915050565b6000819050919050565b6130af8161309c565b81146130ba57600080fd5b50565b6000813590506130cc816130a6565b92915050565b6000602082840312156130e8576130e7612f1c565b5b60006130f6848285016130bd565b91505092915050565b600073ffffffffffffffffffffffffffffffffffffffff82169050919050565b600061312a826130ff565b9050919050565b61313a8161311f565b82525050565b60006020820190506131556000830184613131565b92915050565b6131648161311f565b811461316f57600080fd5b50565b6000813590506131818161315b565b92915050565b6000806040838503121561319e5761319d612f1c565b5b60006131ac85828601613172565b92505060206131bd858286016130bd565b9150509250929050565b6131d08161309c565b82525050565b60006020820190506131eb60008301846131c7565b92915050565b60008060006060848603121561320a57613209612f1c565b5b600061321886828701613172565b935050602061322986828701613172565b925050604061323a868287016130bd565b9150509250925092565b61324d81612fab565b811461325857600080fd5b50565b60008135905061326a81613244565b92915050565b60006020828403121561328657613285612f1c565b5b60006132948482850161325b565b91505092915050565b6000602082840312156132b3576132b2612f1c565b5b60006132c184828501613172565b91505092915050565b600081519050919050565b600082825260208201905092915050565b6000819050602082019050919050565b6132ff8161309c565b82525050565b600061331183836132f6565b60208301905092915050565b6000602082019050919050565b6000613335826132ca565b61333f81856132d5565b935061334a836132e6565b8060005b8381101561337b5781516133628882613305565b975061336d8361331d565b92505060018101905061334e565b5085935050505092915050565b600060208201905081810360008301526133a2818461332a565b905092915050565b600080fd5b600080fd5b7f4e487b7100000000000000000000000000000000000000000000000000000000600052604160045260246000fd5b6133ec82613030565b810181811067ffffffffffffffff8211171561340b5761340a6133b4565b5b80604052505050565b600061341e612f12565b905061342a82826133e3565b919050565b600067ffffffffffffffff82111561344a576134496133b4565b5b61345382613030565b9050602081019050919050565b82818337600083830152505050565b600061348261347d8461342f565b613414565b90508281526020810184848401111561349e5761349d6133af565b5b6134a9848285613460565b509392505050565b600082601f8301126134c6576134c56133aa565b5b81356134d684826020860161346f565b91505092915050565b6000602082840312156134f5576134f4612f1c565b5b600082013567ffffffffffffffff81111561351357613512612f21565b5b61351f848285016134b1565b91505092915050565b6000806040838503121561353f5761353e612f1c565b5b600061354d85828601613172565b925050602061355e8582860161325b565b9150509250929050565b600067ffffffffffffffff821115613583576135826133b4565b5b61358c82613030565b9050602081019050919050565b60006135ac6135a784613568565b613414565b9050828152602081018484840111156135c8576135c76133af565b5b6135d3848285613460565b509392505050565b600082601f8301126135f0576135ef6133aa565b5b8135613600848260208601613599565b91505092915050565b6000806000806080858703121561362357613622612f1c565b5b600061363187828801613172565b945050602061364287828801613172565b9350506040613653878288016130bd565b925050606085013567ffffffffffffffff81111561367457613673612f21565b5b613680878288016135db565b91505092959194509250565b600080604083850312156136a3576136a2612f1c565b5b60006136b185828601613172565b92505060206136c285828601613172565b9150509250929050565b7f4e487b7100000000000000000000000000000000000000000000000000000000600052602260045260246000fd5b6000600282049050600182168061371357607f821691505b60208210811415613727576137266136cc565b5b50919050565b7f4552433732313a20617070726f76656420717565727920666f72206e6f6e657860008201527f697374656e7420746f6b656e0000000000000000000000000000000000000000602082015250565b6000613789602c83612fec565b91506137948261372d565b604082019050919050565b600060208201905081810360008301526137b88161377c565b9050919050565b7f4552433732313a20617070726f76616c20746f2063757272656e74206f776e6560008201527f7200000000000000000000000000000000000000000000000000000000000000602082015250565b600061381b602183612fec565b9150613826826137bf565b604082019050919050565b6000602082019050818103600083015261384a8161380e565b9050919050565b7f4552433732313a20617070726f76652063616c6c6572206973206e6f74206f7760008201527f6e6572206e6f7220617070726f76656420666f7220616c6c0000000000000000602082015250565b60006138ad603883612fec565b91506138b882613851565b604082019050919050565b600060208201905081810360008301526138dc816138a0565b9050919050565b7f4552433732313a207472616e736665722063616c6c6572206973206e6f74206f60008201527f776e6572206e6f7220617070726f766564000000000000000000000000000000602082015250565b600061393f603183612fec565b915061394a826138e3565b604082019050919050565b6000602082019050818103600083015261396e81613932565b9050919050565b7f4f776e61626c653a2063616c6c6572206973206e6f7420746865206f776e6572600082015250565b60006139ab602083612fec565b91506139b682613975565b602082019050919050565b600060208201905081810360008301526139da8161399e565b9050919050565b7f455243373231456e756d657261626c653a206f776e657220696e646578206f7560008201527f74206f6620626f756e6473000000000000000000000000000000000000000000602082015250565b6000613a3d602b83612fec565b9150613a48826139e1565b604082019050919050565b60006020820190508181036000830152613a6c81613a30565b9050919050565b600081905092915050565b50565b6000613a8e600083613a73565b9150613a9982613a7e565b600082019050919050565b6000613aaf82613a81565b9150819050919050565b7f4e487b7100000000000000000000000000000000000000000000000000000000600052603260045260246000fd5b7f4e487b7100000000000000000000000000000000000000000000000000000000600052601160045260246000fd5b6000613b228261309c565b91507fffffffffffffffffffffffffffffffffffffffffffffffffffffffffffffffff821415613b5557613b54613ae8565b5b600182019050919050565b7f455243373231456e756d657261626c653a20676c6f62616c20696e646578206f60008201527f7574206f6620626f756e64730000000000000000000000000000000000000000602082015250565b6000613bbc602c83612fec565b9150613bc782613b60565b604082019050919050565b60006020820190508181036000830152613beb81613baf565b9050919050565b7f4552433732313a206f776e657220717565727920666f72206e6f6e657869737460008201527f656e7420746f6b656e0000000000000000000000000000000000000000000000602082015250565b6000613c4e602983612fec565b9150613c5982613bf2565b604082019050919050565b60006020820190508181036000830152613c7d81613c41565b9050919050565b7f4552433732313a2062616c616e636520717565727920666f7220746865207a6560008201527f726f206164647265737300000000000000000000000000000000000000000000602082015250565b6000613ce0602a83612fec565b9150613ceb82613c84565b604082019050919050565b60006020820190508181036000830152613d0f81613cd3565b9050919050565b6000613d218261309c565b9150613d2c8361309c565b9250827fffffffffffffffffffffffffffffffffffffffffffffffffffffffffffffffff03821115613d6157613d60613ae8565b5b828201905092915050565b7f4d696e74696e67206e6f7720616c6c6f77656420796574000000000000000000600082015250565b6000613da2601783612fec565b9150613dad82613d6c565b602082019050919050565b60006020820190508181036000830152613dd181613d95565b9050919050565b7f4f6e6c792035206d696e747320706572206163636f756e740000000000000000600082015250565b6000613e0e601883612fec565b9150613e1982613dd8565b602082019050919050565b60006020820190508181036000830152613e3d81613e01565b9050919050565b6000613e4f8261309c565b9150613e5a8361309c565b9250817fffffffffffffffffffffffffffffffffffffffffffffffffffffffffffffffff0483118215151615613e9357613e92613ae8565b5b828202905092915050565b7f4552433732313a20617070726f766520746f2063616c6c657200000000000000600082015250565b6000613ed4601983612fec565b9150613edf82613e9e565b602082019050919050565b60006020820190508181036000830152613f0381613ec7565b9050919050565b6000613f158261309c565b9150613f208361309c565b925082821015613f3357613f32613ae8565b5b828203905092915050565b7f4552433732314d657461646174613a2055524920717565727920666f72206e6f60008201527f6e6578697374656e7420746f6b656e0000000000000000000000000000000000602082015250565b6000613f9a602f83612fec565b9150613fa582613f3e565b604082019050919050565b60006020820190508181036000830152613fc981613f8d565b9050919050565b600081905092915050565b6000613fe682612fe1565b613ff08185613fd0565b9350614000818560208601612ffd565b80840191505092915050565b60008190508160005260206000209050919050565b6000815461402e816136fb565b6140388186613fd0565b94506001821660008114614053576001811461406457614097565b60ff19831686528186019350614097565b61406d8561400c565b60005b8381101561408f57815481890152600182019150602081019050614070565b838801955050505b50505092915050565b60006140ac8286613fdb565b91506140b88285613fdb565b91506140c48284614021565b9150819050949350505050565b7f4f776e61626c653a206e6577206f776e657220697320746865207a65726f206160008201527f6464726573730000000000000000000000000000000000000000000000000000602082015250565b600061412d602683612fec565b9150614138826140d1565b604082019050919050565b6000602082019050818103600083015261415c81614120565b9050919050565b7f4552433732313a206f70657261746f7220717565727920666f72206e6f6e657860008201527f697374656e7420746f6b656e0000000000000000000000000000000000000000602082015250565b60006141bf602c83612fec565b91506141ca82614163565b604082019050919050565b600060208201905081810360008301526141ee816141b2565b9050919050565b7f4552433732313a207472616e73666572206f6620746f6b656e2074686174206960008201527f73206e6f74206f776e0000000000000000000000000000000000000000000000602082015250565b6000614251602983612fec565b915061425c826141f5565b604082019050919050565b6000602082019050818103600083015261428081614244565b9050919050565b7f4552433732313a207472616e7366657220746f20746865207a65726f2061646460008201527f7265737300000000000000000000000000000000000000000000000000000000602082015250565b60006142e3602483612fec565b91506142ee82614287565b604082019050919050565b60006020820190508181036000830152614312816142d6565b9050919050565b7f4552433732313a207472616e7366657220746f206e6f6e20455243373231526560008201527f63656976657220696d706c656d656e7465720000000000000000000000000000602082015250565b6000614375603283612fec565b915061438082614319565b604082019050919050565b600060208201905081810360008301526143a481614368565b9050919050565b7f4e487b7100000000000000000000000000000000000000000000000000000000600052601260045260246000fd5b60006143e58261309c565b91506143f08361309c565b925082614400576143ff6143ab565b5b828204905092915050565b60006144168261309c565b91506144218361309c565b925082614431576144306143ab565b5b828206905092915050565b600081519050919050565b600082825260208201905092915050565b60006144638261443c565b61446d8185614447565b935061447d818560208601612ffd565b61448681613030565b840191505092915050565b60006080820190506144a66000830187613131565b6144b36020830186613131565b6144c060408301856131c7565b81810360608301526144d28184614458565b905095945050505050565b6000815190506144ec81612f52565b92915050565b60006020828403121561450857614507612f1c565b5b6000614516848285016144dd565b91505092915050565b7f4e487b7100000000000000000000000000000000000000000000000000000000600052603160045260246000fd5b7f4552433732313a206d696e7420746f20746865207a65726f2061646472657373600082015250565b6000614584602083612fec565b915061458f8261454e565b602082019050919050565b600060208201905081810360008301526145b381614577565b9050919050565b7f4552433732313a20746f6b656e20616c7265616479206d696e74656400000000600082015250565b60006145f0601c83612fec565b91506145fb826145ba565b602082019050919050565b6000602082019050818103600083015261461f816145e3565b905091905056fea2646970667358221220e62ddab60024d4ea6c0ffdda3c4f85db3a93858f4012943add2eb799748b97b664736f6c63430008090033",
  "immutableReferences": {},
  "source": "// SPDX-License-Identifier: MIT\n\n// Amended by HashLips\n/**\n    !Disclaimer!\n    These contracts have been used to create tutorials,\n    and was created for the purpose to teach people\n    how to create smart contracts on the blockchain.\n    please review this code on your own before using any of\n    the following code for production.\n    HashLips will not be liable in any way if for the use \n    of the code. That being said, the code has been tested \n    to the best of the developers' knowledge to work as intended.\n*/\n\n// File: @openzeppelin/contracts/utils/introspection/IERC165.sol\npragma solidity ^0.8.0;\n\n/**\n * @dev Interface of the ERC165 standard, as defined in the\n * https://eips.ethereum.org/EIPS/eip-165[EIP].\n *\n * Implementers can declare support of contract interfaces, which can then be\n * queried by others ({ERC165Checker}).\n *\n * For an implementation, see {ERC165}.\n */\ninterface IERC165 {\n    /**\n     * @dev Returns true if this contract implements the interface defined by\n     * `interfaceId`. See the corresponding\n     * https://eips.ethereum.org/EIPS/eip-165#how-interfaces-are-identified[EIP section]\n     * to learn more about how these ids are created.\n     *\n     * This function call must use less than 30 000 gas.\n     */\n    function supportsInterface(bytes4 interfaceId) external view returns (bool);\n}\n\n// File: @openzeppelin/contracts/token/ERC721/IERC721.sol\npragma solidity ^0.8.0;\n\n/**\n * @dev Required interface of an ERC721 compliant contract.\n */\ninterface IERC721 is IERC165 {\n    /**\n     * @dev Emitted when `tokenId` token is transferred from `from` to `to`.\n     */\n    event Transfer(\n        address indexed from,\n        address indexed to,\n        uint256 indexed tokenId\n    );\n\n    /**\n     * @dev Emitted when `owner` enables `approved` to manage the `tokenId` token.\n     */\n    event Approval(\n        address indexed owner,\n        address indexed approved,\n        uint256 indexed tokenId\n    );\n\n    /**\n     * @dev Emitted when `owner` enables or disables (`approved`) `operator` to manage all of its assets.\n     */\n    event ApprovalForAll(\n        address indexed owner,\n        address indexed operator,\n        bool approved\n    );\n\n    /**\n     * @dev Returns the number of tokens in ``owner``'s account.\n     */\n    function balanceOf(address owner) external view returns (uint256 balance);\n\n    /**\n     * @dev Returns the owner of the `tokenId` token.\n     *\n     * Requirements:\n     *\n     * - `tokenId` must exist.\n     */\n    function ownerOf(uint256 tokenId) external view returns (address owner);\n\n    /**\n     * @dev Safely transfers `tokenId` token from `from` to `to`, checking first that contract recipients\n     * are aware of the ERC721 protocol to prevent tokens from being forever locked.\n     *\n     * Requirements:\n     *\n     * - `from` cannot be the zero address.\n     * - `to` cannot be the zero address.\n     * - `tokenId` token must exist and be owned by `from`.\n     * - If the caller is not `from`, it must be have been allowed to move this token by either {approve} or {setApprovalForAll}.\n     * - If `to` refers to a smart contract, it must implement {IERC721Receiver-onERC721Received}, which is called upon a safe transfer.\n     *\n     * Emits a {Transfer} event.\n     */\n    function safeTransferFrom(\n        address from,\n        address to,\n        uint256 tokenId\n    ) external;\n\n    /**\n     * @dev Transfers `tokenId` token from `from` to `to`.\n     *\n     * WARNING: Usage of this method is discouraged, use {safeTransferFrom} whenever possible.\n     *\n     * Requirements:\n     *\n     * - `from` cannot be the zero address.\n     * - `to` cannot be the zero address.\n     * - `tokenId` token must be owned by `from`.\n     * - If the caller is not `from`, it must be approved to move this token by either {approve} or {setApprovalForAll}.\n     *\n     * Emits a {Transfer} event.\n     */\n    function transferFrom(\n        address from,\n        address to,\n        uint256 tokenId\n    ) external;\n\n    /**\n     * @dev Gives permission to `to` to transfer `tokenId` token to another account.\n     * The approval is cleared when the token is transferred.\n     *\n     * Only a single account can be approved at a time, so approving the zero address clears previous approvals.\n     *\n     * Requirements:\n     *\n     * - The caller must own the token or be an approved operator.\n     * - `tokenId` must exist.\n     *\n     * Emits an {Approval} event.\n     */\n    function approve(address to, uint256 tokenId) external;\n\n    /**\n     * @dev Returns the account approved for `tokenId` token.\n     *\n     * Requirements:\n     *\n     * - `tokenId` must exist.\n     */\n    function getApproved(uint256 tokenId)\n        external\n        view\n        returns (address operator);\n\n    /**\n     * @dev Approve or remove `operator` as an operator for the caller.\n     * Operators can call {transferFrom} or {safeTransferFrom} for any token owned by the caller.\n     *\n     * Requirements:\n     *\n     * - The `operator` cannot be the caller.\n     *\n     * Emits an {ApprovalForAll} event.\n     */\n    function setApprovalForAll(address operator, bool _approved) external;\n\n    /**\n     * @dev Returns if the `operator` is allowed to manage all of the assets of `owner`.\n     *\n     * See {setApprovalForAll}\n     */\n    function isApprovedForAll(address owner, address operator)\n        external\n        view\n        returns (bool);\n\n    /**\n     * @dev Safely transfers `tokenId` token from `from` to `to`.\n     *\n     * Requirements:\n     *\n     * - `from` cannot be the zero address.\n     * - `to` cannot be the zero address.\n     * - `tokenId` token must exist and be owned by `from`.\n     * - If the caller is not `from`, it must be approved to move this token by either {approve} or {setApprovalForAll}.\n     * - If `to` refers to a smart contract, it must implement {IERC721Receiver-onERC721Received}, which is called upon a safe transfer.\n     *\n     * Emits a {Transfer} event.\n     */\n    function safeTransferFrom(\n        address from,\n        address to,\n        uint256 tokenId,\n        bytes calldata data\n    ) external;\n}\n\n// File: @openzeppelin/contracts/token/ERC721/extensions/IERC721Enumerable.sol\npragma solidity ^0.8.0;\n\n/**\n * @title ERC-721 Non-Fungible Token Standard, optional enumeration extension\n * @dev See https://eips.ethereum.org/EIPS/eip-721\n */\ninterface IERC721Enumerable is IERC721 {\n    /**\n     * @dev Returns the total amount of tokens stored by the contract.\n     */\n    function totalSupply() external view returns (uint256);\n\n    /**\n     * @dev Returns a token ID owned by `owner` at a given `index` of its token list.\n     * Use along with {balanceOf} to enumerate all of ``owner``'s tokens.\n     */\n    function tokenOfOwnerByIndex(address owner, uint256 index)\n        external\n        view\n        returns (uint256 tokenId);\n\n    /**\n     * @dev Returns a token ID at a given `index` of all the tokens stored by the contract.\n     * Use along with {totalSupply} to enumerate all tokens.\n     */\n    function tokenByIndex(uint256 index) external view returns (uint256);\n}\n\n// File: @openzeppelin/contracts/utils/introspection/ERC165.sol\npragma solidity ^0.8.0;\n\n/**\n * @dev Implementation of the {IERC165} interface.\n *\n * Contracts that want to implement ERC165 should inherit from this contract and override {supportsInterface} to check\n * for the additional interface id that will be supported. For example:\n *\n * ```solidity\n * function supportsInterface(bytes4 interfaceId) public view virtual override returns (bool) {\n *     return interfaceId == type(MyInterface).interfaceId || super.supportsInterface(interfaceId);\n * }\n * ```\n *\n * Alternatively, {ERC165Storage} provides an easier to use but more expensive implementation.\n */\nabstract contract ERC165 is IERC165 {\n    /**\n     * @dev See {IERC165-supportsInterface}.\n     */\n    function supportsInterface(bytes4 interfaceId)\n        public\n        view\n        virtual\n        override\n        returns (bool)\n    {\n        return interfaceId == type(IERC165).interfaceId;\n    }\n}\n\n// File: @openzeppelin/contracts/utils/Strings.sol\n\npragma solidity ^0.8.0;\n\n/**\n * @dev String operations.\n */\nlibrary Strings {\n    bytes16 private constant _HEX_SYMBOLS = \"0123456789abcdef\";\n\n    /**\n     * @dev Converts a `uint256` to its ASCII `string` decimal representation.\n     */\n    function toString(uint256 value) internal pure returns (string memory) {\n        // Inspired by OraclizeAPI's implementation - MIT licence\n        // https://github.com/oraclize/ethereum-api/blob/b42146b063c7d6ee1358846c198246239e9360e8/oraclizeAPI_0.4.25.sol\n\n        if (value == 0) {\n            return \"0\";\n        }\n        uint256 temp = value;\n        uint256 digits;\n        while (temp != 0) {\n            digits++;\n            temp /= 10;\n        }\n        bytes memory buffer = new bytes(digits);\n        while (value != 0) {\n            digits -= 1;\n            buffer[digits] = bytes1(uint8(48 + uint256(value % 10)));\n            value /= 10;\n        }\n        return string(buffer);\n    }\n\n    /**\n     * @dev Converts a `uint256` to its ASCII `string` hexadecimal representation.\n     */\n    function toHexString(uint256 value) internal pure returns (string memory) {\n        if (value == 0) {\n            return \"0x00\";\n        }\n        uint256 temp = value;\n        uint256 length = 0;\n        while (temp != 0) {\n            length++;\n            temp >>= 8;\n        }\n        return toHexString(value, length);\n    }\n\n    /**\n     * @dev Converts a `uint256` to its ASCII `string` hexadecimal representation with fixed length.\n     */\n    function toHexString(uint256 value, uint256 length)\n        internal\n        pure\n        returns (string memory)\n    {\n        bytes memory buffer = new bytes(2 * length + 2);\n        buffer[0] = \"0\";\n        buffer[1] = \"x\";\n        for (uint256 i = 2 * length + 1; i > 1; --i) {\n            buffer[i] = _HEX_SYMBOLS[value & 0xf];\n            value >>= 4;\n        }\n        require(value == 0, \"Strings: hex length insufficient\");\n        return string(buffer);\n    }\n}\n\n// File: @openzeppelin/contracts/utils/Address.sol\n\npragma solidity ^0.8.0;\n\n/**\n * @dev Collection of functions related to the address type\n */\nlibrary Address {\n    /**\n     * @dev Returns true if `account` is a contract.\n     *\n     * [IMPORTANT]\n     * ====\n     * It is unsafe to assume that an address for which this function returns\n     * false is an externally-owned account (EOA) and not a contract.\n     *\n     * Among others, `isContract` will return false for the following\n     * types of addresses:\n     *\n     *  - an externally-owned account\n     *  - a contract in construction\n     *  - an address where a contract will be created\n     *  - an address where a contract lived, but was destroyed\n     * ====\n     */\n    function isContract(address account) internal view returns (bool) {\n        // This method relies on extcodesize, which returns 0 for contracts in\n        // construction, since the code is only stored at the end of the\n        // constructor execution.\n\n        uint256 size;\n        assembly {\n            size := extcodesize(account)\n        }\n        return size > 0;\n    }\n\n    /**\n     * @dev Replacement for Solidity's `transfer`: sends `amount` wei to\n     * `recipient`, forwarding all available gas and reverting on errors.\n     *\n     * https://eips.ethereum.org/EIPS/eip-1884[EIP1884] increases the gas cost\n     * of certain opcodes, possibly making contracts go over the 2300 gas limit\n     * imposed by `transfer`, making them unable to receive funds via\n     * `transfer`. {sendValue} removes this limitation.\n     *\n     * https://diligence.consensys.net/posts/2019/09/stop-using-soliditys-transfer-now/[Learn more].\n     *\n     * IMPORTANT: because control is transferred to `recipient`, care must be\n     * taken to not create reentrancy vulnerabilities. Consider using\n     * {ReentrancyGuard} or the\n     * https://solidity.readthedocs.io/en/v0.5.11/security-considerations.html#use-the-checks-effects-interactions-pattern[checks-effects-interactions pattern].\n     */\n    function sendValue(address payable recipient, uint256 amount) internal {\n        require(\n            address(this).balance >= amount,\n            \"Address: insufficient balance\"\n        );\n\n        (bool success, ) = recipient.call{value: amount}(\"\");\n        require(\n            success,\n            \"Address: unable to send value, recipient may have reverted\"\n        );\n    }\n\n    /**\n     * @dev Performs a Solidity function call using a low level `call`. A\n     * plain `call` is an unsafe replacement for a function call: use this\n     * function instead.\n     *\n     * If `target` reverts with a revert reason, it is bubbled up by this\n     * function (like regular Solidity function calls).\n     *\n     * Returns the raw returned data. To convert to the expected return value,\n     * use https://solidity.readthedocs.io/en/latest/units-and-global-variables.html?highlight=abi.decode#abi-encoding-and-decoding-functions[`abi.decode`].\n     *\n     * Requirements:\n     *\n     * - `target` must be a contract.\n     * - calling `target` with `data` must not revert.\n     *\n     * _Available since v3.1._\n     */\n    function functionCall(address target, bytes memory data)\n        internal\n        returns (bytes memory)\n    {\n        return functionCall(target, data, \"Address: low-level call failed\");\n    }\n\n    /**\n     * @dev Same as {xref-Address-functionCall-address-bytes-}[`functionCall`], but with\n     * `errorMessage` as a fallback revert reason when `target` reverts.\n     *\n     * _Available since v3.1._\n     */\n    function functionCall(\n        address target,\n        bytes memory data,\n        string memory errorMessage\n    ) internal returns (bytes memory) {\n        return functionCallWithValue(target, data, 0, errorMessage);\n    }\n\n    /**\n     * @dev Same as {xref-Address-functionCall-address-bytes-}[`functionCall`],\n     * but also transferring `value` wei to `target`.\n     *\n     * Requirements:\n     *\n     * - the calling contract must have an ETH balance of at least `value`.\n     * - the called Solidity function must be `payable`.\n     *\n     * _Available since v3.1._\n     */\n    function functionCallWithValue(\n        address target,\n        bytes memory data,\n        uint256 value\n    ) internal returns (bytes memory) {\n        return\n            functionCallWithValue(\n                target,\n                data,\n                value,\n                \"Address: low-level call with value failed\"\n            );\n    }\n\n    /**\n     * @dev Same as {xref-Address-functionCallWithValue-address-bytes-uint256-}[`functionCallWithValue`], but\n     * with `errorMessage` as a fallback revert reason when `target` reverts.\n     *\n     * _Available since v3.1._\n     */\n    function functionCallWithValue(\n        address target,\n        bytes memory data,\n        uint256 value,\n        string memory errorMessage\n    ) internal returns (bytes memory) {\n        require(\n            address(this).balance >= value,\n            \"Address: insufficient balance for call\"\n        );\n        require(isContract(target), \"Address: call to non-contract\");\n\n        (bool success, bytes memory returndata) = target.call{value: value}(\n            data\n        );\n        return verifyCallResult(success, returndata, errorMessage);\n    }\n\n    /**\n     * @dev Same as {xref-Address-functionCall-address-bytes-}[`functionCall`],\n     * but performing a static call.\n     *\n     * _Available since v3.3._\n     */\n    function functionStaticCall(address target, bytes memory data)\n        internal\n        view\n        returns (bytes memory)\n    {\n        return\n            functionStaticCall(\n                target,\n                data,\n                \"Address: low-level static call failed\"\n            );\n    }\n\n    /**\n     * @dev Same as {xref-Address-functionCall-address-bytes-string-}[`functionCall`],\n     * but performing a static call.\n     *\n     * _Available since v3.3._\n     */\n    function functionStaticCall(\n        address target,\n        bytes memory data,\n        string memory errorMessage\n    ) internal view returns (bytes memory) {\n        require(isContract(target), \"Address: static call to non-contract\");\n\n        (bool success, bytes memory returndata) = target.staticcall(data);\n        return verifyCallResult(success, returndata, errorMessage);\n    }\n\n    /**\n     * @dev Same as {xref-Address-functionCall-address-bytes-}[`functionCall`],\n     * but performing a delegate call.\n     *\n     * _Available since v3.4._\n     */\n    function functionDelegateCall(address target, bytes memory data)\n        internal\n        returns (bytes memory)\n    {\n        return\n            functionDelegateCall(\n                target,\n                data,\n                \"Address: low-level delegate call failed\"\n            );\n    }\n\n    /**\n     * @dev Same as {xref-Address-functionCall-address-bytes-string-}[`functionCall`],\n     * but performing a delegate call.\n     *\n     * _Available since v3.4._\n     */\n    function functionDelegateCall(\n        address target,\n        bytes memory data,\n        string memory errorMessage\n    ) internal returns (bytes memory) {\n        require(isContract(target), \"Address: delegate call to non-contract\");\n\n        (bool success, bytes memory returndata) = target.delegatecall(data);\n        return verifyCallResult(success, returndata, errorMessage);\n    }\n\n    /**\n     * @dev Tool to verifies that a low level call was successful, and revert if it wasn't, either by bubbling the\n     * revert reason using the provided one.\n     *\n     * _Available since v4.3._\n     */\n    function verifyCallResult(\n        bool success,\n        bytes memory returndata,\n        string memory errorMessage\n    ) internal pure returns (bytes memory) {\n        if (success) {\n            return returndata;\n        } else {\n            // Look for revert reason and bubble it up if present\n            if (returndata.length > 0) {\n                // The easiest way to bubble the revert reason is using memory via assembly\n\n                assembly {\n                    let returndata_size := mload(returndata)\n                    revert(add(32, returndata), returndata_size)\n                }\n            } else {\n                revert(errorMessage);\n            }\n        }\n    }\n}\n\n// File: @openzeppelin/contracts/token/ERC721/extensions/IERC721Metadata.sol\n\npragma solidity ^0.8.0;\n\n/**\n * @title ERC-721 Non-Fungible Token Standard, optional metadata extension\n * @dev See https://eips.ethereum.org/EIPS/eip-721\n */\ninterface IERC721Metadata is IERC721 {\n    /**\n     * @dev Returns the token collection name.\n     */\n    function name() external view returns (string memory);\n\n    /**\n     * @dev Returns the token collection symbol.\n     */\n    function symbol() external view returns (string memory);\n\n    /**\n     * @dev Returns the Uniform Resource Identifier (URI) for `tokenId` token.\n     */\n    function tokenURI(uint256 tokenId) external view returns (string memory);\n}\n\n// File: @openzeppelin/contracts/token/ERC721/IERC721Receiver.sol\n\npragma solidity ^0.8.0;\n\n/**\n * @title ERC721 token receiver interface\n * @dev Interface for any contract that wants to support safeTransfers\n * from ERC721 asset contracts.\n */\ninterface IERC721Receiver {\n    /**\n     * @dev Whenever an {IERC721} `tokenId` token is transferred to this contract via {IERC721-safeTransferFrom}\n     * by `operator` from `from`, this function is called.\n     *\n     * It must return its Solidity selector to confirm the token transfer.\n     * If any other value is returned or the interface is not implemented by the recipient, the transfer will be reverted.\n     *\n     * The selector can be obtained in Solidity with `IERC721.onERC721Received.selector`.\n     */\n    function onERC721Received(\n        address operator,\n        address from,\n        uint256 tokenId,\n        bytes calldata data\n    ) external returns (bytes4);\n}\n\n// File: @openzeppelin/contracts/utils/Context.sol\npragma solidity ^0.8.0;\n\n/**\n * @dev Provides information about the current execution context, including the\n * sender of the transaction and its data. While these are generally available\n * via msg.sender and msg.data, they should not be accessed in such a direct\n * manner, since when dealing with meta-transactions the account sending and\n * paying for execution may not be the actual sender (as far as an application\n * is concerned).\n *\n * This contract is only required for intermediate, library-like contracts.\n */\nabstract contract Context {\n    function _msgSender() internal view virtual returns (address) {\n        return msg.sender;\n    }\n\n    function _msgData() internal view virtual returns (bytes calldata) {\n        return msg.data;\n    }\n}\n\n// File: @openzeppelin/contracts/token/ERC721/ERC721.sol\npragma solidity ^0.8.0;\n\n/**\n * @dev Implementation of https://eips.ethereum.org/EIPS/eip-721[ERC721] Non-Fungible Token Standard, including\n * the Metadata extension, but not including the Enumerable extension, which is available separately as\n * {ERC721Enumerable}.\n */\ncontract ERC721 is Context, ERC165, IERC721, IERC721Metadata {\n    using Address for address;\n    using Strings for uint256;\n\n    // Token name\n    string private _name;\n\n    // Token symbol\n    string private _symbol;\n\n    // Mapping from token ID to owner address\n    mapping(uint256 => address) private _owners;\n\n    // Mapping owner address to token count\n    mapping(address => uint256) private _balances;\n\n    // Mapping from token ID to approved address\n    mapping(uint256 => address) private _tokenApprovals;\n\n    // Mapping from owner to operator approvals\n    mapping(address => mapping(address => bool)) private _operatorApprovals;\n\n    /**\n     * @dev Initializes the contract by setting a `name` and a `symbol` to the token collection.\n     */\n    constructor(string memory name_, string memory symbol_) {\n        _name = name_;\n        _symbol = symbol_;\n    }\n\n    /**\n     * @dev See {IERC165-supportsInterface}.\n     */\n    function supportsInterface(bytes4 interfaceId)\n        public\n        view\n        virtual\n        override(ERC165, IERC165)\n        returns (bool)\n    {\n        return\n            interfaceId == type(IERC721).interfaceId ||\n            interfaceId == type(IERC721Metadata).interfaceId ||\n            super.supportsInterface(interfaceId);\n    }\n\n    /**\n     * @dev See {IERC721-balanceOf}.\n     */\n    function balanceOf(address owner)\n        public\n        view\n        virtual\n        override\n        returns (uint256)\n    {\n        require(\n            owner != address(0),\n            \"ERC721: balance query for the zero address\"\n        );\n        return _balances[owner];\n    }\n\n    /**\n     * @dev See {IERC721-ownerOf}.\n     */\n    function ownerOf(uint256 tokenId)\n        public\n        view\n        virtual\n        override\n        returns (address)\n    {\n        address owner = _owners[tokenId];\n        require(\n            owner != address(0),\n            \"ERC721: owner query for nonexistent token\"\n        );\n        return owner;\n    }\n\n    /**\n     * @dev See {IERC721Metadata-name}.\n     */\n    function name() public view virtual override returns (string memory) {\n        return _name;\n    }\n\n    /**\n     * @dev See {IERC721Metadata-symbol}.\n     */\n    function symbol() public view virtual override returns (string memory) {\n        return _symbol;\n    }\n\n    /**\n     * @dev See {IERC721Metadata-tokenURI}.\n     */\n    function tokenURI(uint256 tokenId)\n        public\n        view\n        virtual\n        override\n        returns (string memory)\n    {\n        require(\n            _exists(tokenId),\n            \"ERC721Metadata: URI query for nonexistent token\"\n        );\n\n        string memory baseURI = _baseURI();\n        return\n            bytes(baseURI).length > 0\n                ? string(abi.encodePacked(baseURI, tokenId.toString()))\n                : \"\";\n    }\n\n    /**\n     * @dev Base URI for computing {tokenURI}. If set, the resulting URI for each\n     * token will be the concatenation of the `baseURI` and the `tokenId`. Empty\n     * by default, can be overriden in child contracts.\n     */\n    function _baseURI() internal view virtual returns (string memory) {\n        return \"\";\n    }\n\n    /**\n     * @dev See {IERC721-approve}.\n     */\n    function approve(address to, uint256 tokenId) public virtual override {\n        address owner = ERC721.ownerOf(tokenId);\n        require(to != owner, \"ERC721: approval to current owner\");\n\n        require(\n            _msgSender() == owner || isApprovedForAll(owner, _msgSender()),\n            \"ERC721: approve caller is not owner nor approved for all\"\n        );\n\n        _approve(to, tokenId);\n    }\n\n    /**\n     * @dev See {IERC721-getApproved}.\n     */\n    function getApproved(uint256 tokenId)\n        public\n        view\n        virtual\n        override\n        returns (address)\n    {\n        require(\n            _exists(tokenId),\n            \"ERC721: approved query for nonexistent token\"\n        );\n\n        return _tokenApprovals[tokenId];\n    }\n\n    /**\n     * @dev See {IERC721-setApprovalForAll}.\n     */\n    function setApprovalForAll(address operator, bool approved)\n        public\n        virtual\n        override\n    {\n        require(operator != _msgSender(), \"ERC721: approve to caller\");\n\n        _operatorApprovals[_msgSender()][operator] = approved;\n        emit ApprovalForAll(_msgSender(), operator, approved);\n    }\n\n    /**\n     * @dev See {IERC721-isApprovedForAll}.\n     */\n    function isApprovedForAll(address owner, address operator)\n        public\n        view\n        virtual\n        override\n        returns (bool)\n    {\n        return _operatorApprovals[owner][operator];\n    }\n\n    /**\n     * @dev See {IERC721-transferFrom}.\n     */\n    function transferFrom(\n        address from,\n        address to,\n        uint256 tokenId\n    ) public virtual override {\n        //solhint-disable-next-line max-line-length\n        require(\n            _isApprovedOrOwner(_msgSender(), tokenId),\n            \"ERC721: transfer caller is not owner nor approved\"\n        );\n\n        _transfer(from, to, tokenId);\n    }\n\n    /**\n     * @dev See {IERC721-safeTransferFrom}.\n     */\n    function safeTransferFrom(\n        address from,\n        address to,\n        uint256 tokenId\n    ) public virtual override {\n        safeTransferFrom(from, to, tokenId, \"\");\n    }\n\n    /**\n     * @dev See {IERC721-safeTransferFrom}.\n     */\n    function safeTransferFrom(\n        address from,\n        address to,\n        uint256 tokenId,\n        bytes memory _data\n    ) public virtual override {\n        require(\n            _isApprovedOrOwner(_msgSender(), tokenId),\n            \"ERC721: transfer caller is not owner nor approved\"\n        );\n        _safeTransfer(from, to, tokenId, _data);\n    }\n\n    /**\n     * @dev Safely transfers `tokenId` token from `from` to `to`, checking first that contract recipients\n     * are aware of the ERC721 protocol to prevent tokens from being forever locked.\n     *\n     * `_data` is additional data, it has no specified format and it is sent in call to `to`.\n     *\n     * This internal function is equivalent to {safeTransferFrom}, and can be used to e.g.\n     * implement alternative mechanisms to perform token transfer, such as signature-based.\n     *\n     * Requirements:\n     *\n     * - `from` cannot be the zero address.\n     * - `to` cannot be the zero address.\n     * - `tokenId` token must exist and be owned by `from`.\n     * - If `to` refers to a smart contract, it must implement {IERC721Receiver-onERC721Received}, which is called upon a safe transfer.\n     *\n     * Emits a {Transfer} event.\n     */\n    function _safeTransfer(\n        address from,\n        address to,\n        uint256 tokenId,\n        bytes memory _data\n    ) internal virtual {\n        _transfer(from, to, tokenId);\n        require(\n            _checkOnERC721Received(from, to, tokenId, _data),\n            \"ERC721: transfer to non ERC721Receiver implementer\"\n        );\n    }\n\n    /**\n     * @dev Returns whether `tokenId` exists.\n     *\n     * Tokens can be managed by their owner or approved accounts via {approve} or {setApprovalForAll}.\n     *\n     * Tokens start existing when they are minted (`_mint`),\n     * and stop existing when they are burned (`_burn`).\n     */\n    function _exists(uint256 tokenId) internal view virtual returns (bool) {\n        return _owners[tokenId] != address(0);\n    }\n\n    /**\n     * @dev Returns whether `spender` is allowed to manage `tokenId`.\n     *\n     * Requirements:\n     *\n     * - `tokenId` must exist.\n     */\n    function _isApprovedOrOwner(address spender, uint256 tokenId)\n        internal\n        view\n        virtual\n        returns (bool)\n    {\n        require(\n            _exists(tokenId),\n            \"ERC721: operator query for nonexistent token\"\n        );\n        address owner = ERC721.ownerOf(tokenId);\n        return (spender == owner ||\n            getApproved(tokenId) == spender ||\n            isApprovedForAll(owner, spender));\n    }\n\n    /**\n     * @dev Safely mints `tokenId` and transfers it to `to`.\n     *\n     * Requirements:\n     *\n     * - `tokenId` must not exist.\n     * - If `to` refers to a smart contract, it must implement {IERC721Receiver-onERC721Received}, which is called upon a safe transfer.\n     *\n     * Emits a {Transfer} event.\n     */\n    function _safeMint(address to, uint256 tokenId) internal virtual {\n        _safeMint(to, tokenId, \"\");\n    }\n\n    /**\n     * @dev Same as {xref-ERC721-_safeMint-address-uint256-}[`_safeMint`], with an additional `data` parameter which is\n     * forwarded in {IERC721Receiver-onERC721Received} to contract recipients.\n     */\n    function _safeMint(\n        address to,\n        uint256 tokenId,\n        bytes memory _data\n    ) internal virtual {\n        _mint(to, tokenId);\n        require(\n            _checkOnERC721Received(address(0), to, tokenId, _data),\n            \"ERC721: transfer to non ERC721Receiver implementer\"\n        );\n    }\n\n    /**\n     * @dev Mints `tokenId` and transfers it to `to`.\n     *\n     * WARNING: Usage of this method is discouraged, use {_safeMint} whenever possible\n     *\n     * Requirements:\n     *\n     * - `tokenId` must not exist.\n     * - `to` cannot be the zero address.\n     *\n     * Emits a {Transfer} event.\n     */\n    function _mint(address to, uint256 tokenId) internal virtual {\n        require(to != address(0), \"ERC721: mint to the zero address\");\n        require(!_exists(tokenId), \"ERC721: token already minted\");\n\n        _beforeTokenTransfer(address(0), to, tokenId);\n\n        _balances[to] += 1;\n        _owners[tokenId] = to;\n\n        emit Transfer(address(0), to, tokenId);\n    }\n\n    /**\n     * @dev Destroys `tokenId`.\n     * The approval is cleared when the token is burned.\n     *\n     * Requirements:\n     *\n     * - `tokenId` must exist.\n     *\n     * Emits a {Transfer} event.\n     */\n    function _burn(uint256 tokenId) internal virtual {\n        address owner = ERC721.ownerOf(tokenId);\n\n        _beforeTokenTransfer(owner, address(0), tokenId);\n\n        // Clear approvals\n        _approve(address(0), tokenId);\n\n        _balances[owner] -= 1;\n        delete _owners[tokenId];\n\n        emit Transfer(owner, address(0), tokenId);\n    }\n\n    /**\n     * @dev Transfers `tokenId` from `from` to `to`.\n     *  As opposed to {transferFrom}, this imposes no restrictions on msg.sender.\n     *\n     * Requirements:\n     *\n     * - `to` cannot be the zero address.\n     * - `tokenId` token must be owned by `from`.\n     *\n     * Emits a {Transfer} event.\n     */\n    function _transfer(\n        address from,\n        address to,\n        uint256 tokenId\n    ) internal virtual {\n        require(\n            ERC721.ownerOf(tokenId) == from,\n            \"ERC721: transfer of token that is not own\"\n        );\n        require(to != address(0), \"ERC721: transfer to the zero address\");\n\n        _beforeTokenTransfer(from, to, tokenId);\n\n        // Clear approvals from the previous owner\n        _approve(address(0), tokenId);\n\n        _balances[from] -= 1;\n        _balances[to] += 1;\n        _owners[tokenId] = to;\n\n        emit Transfer(from, to, tokenId);\n    }\n\n    /**\n     * @dev Approve `to` to operate on `tokenId`\n     *\n     * Emits a {Approval} event.\n     */\n    function _approve(address to, uint256 tokenId) internal virtual {\n        _tokenApprovals[tokenId] = to;\n        emit Approval(ERC721.ownerOf(tokenId), to, tokenId);\n    }\n\n    /**\n     * @dev Internal function to invoke {IERC721Receiver-onERC721Received} on a target address.\n     * The call is not executed if the target address is not a contract.\n     *\n     * @param from address representing the previous owner of the given token ID\n     * @param to target address that will receive the tokens\n     * @param tokenId uint256 ID of the token to be transferred\n     * @param _data bytes optional data to send along with the call\n     * @return bool whether the call correctly returned the expected magic value\n     */\n    function _checkOnERC721Received(\n        address from,\n        address to,\n        uint256 tokenId,\n        bytes memory _data\n    ) private returns (bool) {\n        if (to.isContract()) {\n            try\n                IERC721Receiver(to).onERC721Received(\n                    _msgSender(),\n                    from,\n                    tokenId,\n                    _data\n                )\n            returns (bytes4 retval) {\n                return retval == IERC721Receiver.onERC721Received.selector;\n            } catch (bytes memory reason) {\n                if (reason.length == 0) {\n                    revert(\n                        \"ERC721: transfer to non ERC721Receiver implementer\"\n                    );\n                } else {\n                    assembly {\n                        revert(add(32, reason), mload(reason))\n                    }\n                }\n            }\n        } else {\n            return true;\n        }\n    }\n\n    /**\n     * @dev Hook that is called before any token transfer. This includes minting\n     * and burning.\n     *\n     * Calling conditions:\n     *\n     * - When `from` and `to` are both non-zero, ``from``'s `tokenId` will be\n     * transferred to `to`.\n     * - When `from` is zero, `tokenId` will be minted for `to`.\n     * - When `to` is zero, ``from``'s `tokenId` will be burned.\n     * - `from` and `to` are never both zero.\n     *\n     * To learn more about hooks, head to xref:ROOT:extending-contracts.adoc#using-hooks[Using Hooks].\n     */\n    function _beforeTokenTransfer(\n        address from,\n        address to,\n        uint256 tokenId\n    ) internal virtual {}\n}\n\n// File: @openzeppelin/contracts/token/ERC721/extensions/ERC721Enumerable.sol\n\npragma solidity ^0.8.0;\n\n/**\n * @dev This implements an optional extension of {ERC721} defined in the EIP that adds\n * enumerability of all the token ids in the contract as well as all token ids owned by each\n * account.\n */\nabstract contract ERC721Enumerable is ERC721, IERC721Enumerable {\n    // Mapping from owner to list of owned token IDs\n    mapping(address => mapping(uint256 => uint256)) private _ownedTokens;\n\n    // Mapping from token ID to index of the owner tokens list\n    mapping(uint256 => uint256) private _ownedTokensIndex;\n\n    // Array with all token ids, used for enumeration\n    uint256[] private _allTokens;\n\n    // Mapping from token id to position in the allTokens array\n    mapping(uint256 => uint256) private _allTokensIndex;\n\n    /**\n     * @dev See {IERC165-supportsInterface}.\n     */\n    function supportsInterface(bytes4 interfaceId)\n        public\n        view\n        virtual\n        override(IERC165, ERC721)\n        returns (bool)\n    {\n        return\n            interfaceId == type(IERC721Enumerable).interfaceId ||\n            super.supportsInterface(interfaceId);\n    }\n\n    /**\n     * @dev See {IERC721Enumerable-tokenOfOwnerByIndex}.\n     */\n    function tokenOfOwnerByIndex(address owner, uint256 index)\n        public\n        view\n        virtual\n        override\n        returns (uint256)\n    {\n        require(\n            index < ERC721.balanceOf(owner),\n            \"ERC721Enumerable: owner index out of bounds\"\n        );\n        return _ownedTokens[owner][index];\n    }\n\n    /**\n     * @dev See {IERC721Enumerable-totalSupply}.\n     */\n    function totalSupply() public view virtual override returns (uint256) {\n        return _allTokens.length;\n    }\n\n    /**\n     * @dev See {IERC721Enumerable-tokenByIndex}.\n     */\n    function tokenByIndex(uint256 index)\n        public\n        view\n        virtual\n        override\n        returns (uint256)\n    {\n        require(\n            index < ERC721Enumerable.totalSupply(),\n            \"ERC721Enumerable: global index out of bounds\"\n        );\n        return _allTokens[index];\n    }\n\n    /**\n     * @dev Hook that is called before any token transfer. This includes minting\n     * and burning.\n     *\n     * Calling conditions:\n     *\n     * - When `from` and `to` are both non-zero, ``from``'s `tokenId` will be\n     * transferred to `to`.\n     * - When `from` is zero, `tokenId` will be minted for `to`.\n     * - When `to` is zero, ``from``'s `tokenId` will be burned.\n     * - `from` cannot be the zero address.\n     * - `to` cannot be the zero address.\n     *\n     * To learn more about hooks, head to xref:ROOT:extending-contracts.adoc#using-hooks[Using Hooks].\n     */\n    function _beforeTokenTransfer(\n        address from,\n        address to,\n        uint256 tokenId\n    ) internal virtual override {\n        super._beforeTokenTransfer(from, to, tokenId);\n\n        if (from == address(0)) {\n            _addTokenToAllTokensEnumeration(tokenId);\n        } else if (from != to) {\n            _removeTokenFromOwnerEnumeration(from, tokenId);\n        }\n        if (to == address(0)) {\n            _removeTokenFromAllTokensEnumeration(tokenId);\n        } else if (to != from) {\n            _addTokenToOwnerEnumeration(to, tokenId);\n        }\n    }\n\n    /**\n     * @dev Private function to add a token to this extension's ownership-tracking data structures.\n     * @param to address representing the new owner of the given token ID\n     * @param tokenId uint256 ID of the token to be added to the tokens list of the given address\n     */\n    function _addTokenToOwnerEnumeration(address to, uint256 tokenId) private {\n        uint256 length = ERC721.balanceOf(to);\n        _ownedTokens[to][length] = tokenId;\n        _ownedTokensIndex[tokenId] = length;\n    }\n\n    /**\n     * @dev Private function to add a token to this extension's token tracking data structures.\n     * @param tokenId uint256 ID of the token to be added to the tokens list\n     */\n    function _addTokenToAllTokensEnumeration(uint256 tokenId) private {\n        _allTokensIndex[tokenId] = _allTokens.length;\n        _allTokens.push(tokenId);\n    }\n\n    /**\n     * @dev Private function to remove a token from this extension's ownership-tracking data structures. Note that\n     * while the token is not assigned a new owner, the `_ownedTokensIndex` mapping is _not_ updated: this allows for\n     * gas optimizations e.g. when performing a transfer operation (avoiding double writes).\n     * This has O(1) time complexity, but alters the order of the _ownedTokens array.\n     * @param from address representing the previous owner of the given token ID\n     * @param tokenId uint256 ID of the token to be removed from the tokens list of the given address\n     */\n    function _removeTokenFromOwnerEnumeration(address from, uint256 tokenId)\n        private\n    {\n        // To prevent a gap in from's tokens array, we store the last token in the index of the token to delete, and\n        // then delete the last slot (swap and pop).\n\n        uint256 lastTokenIndex = ERC721.balanceOf(from) - 1;\n        uint256 tokenIndex = _ownedTokensIndex[tokenId];\n\n        // When the token to delete is the last token, the swap operation is unnecessary\n        if (tokenIndex != lastTokenIndex) {\n            uint256 lastTokenId = _ownedTokens[from][lastTokenIndex];\n\n            _ownedTokens[from][tokenIndex] = lastTokenId; // Move the last token to the slot of the to-delete token\n            _ownedTokensIndex[lastTokenId] = tokenIndex; // Update the moved token's index\n        }\n\n        // This also deletes the contents at the last position of the array\n        delete _ownedTokensIndex[tokenId];\n        delete _ownedTokens[from][lastTokenIndex];\n    }\n\n    /**\n     * @dev Private function to remove a token from this extension's token tracking data structures.\n     * This has O(1) time complexity, but alters the order of the _allTokens array.\n     * @param tokenId uint256 ID of the token to be removed from the tokens list\n     */\n    function _removeTokenFromAllTokensEnumeration(uint256 tokenId) private {\n        // To prevent a gap in the tokens array, we store the last token in the index of the token to delete, and\n        // then delete the last slot (swap and pop).\n\n        uint256 lastTokenIndex = _allTokens.length - 1;\n        uint256 tokenIndex = _allTokensIndex[tokenId];\n\n        // When the token to delete is the last token, the swap operation is unnecessary. However, since this occurs so\n        // rarely (when the last minted token is burnt) that we still do the swap here to avoid the gas cost of adding\n        // an 'if' statement (like in _removeTokenFromOwnerEnumeration)\n        uint256 lastTokenId = _allTokens[lastTokenIndex];\n\n        _allTokens[tokenIndex] = lastTokenId; // Move the last token to the slot of the to-delete token\n        _allTokensIndex[lastTokenId] = tokenIndex; // Update the moved token's index\n\n        // This also deletes the contents at the last position of the array\n        delete _allTokensIndex[tokenId];\n        _allTokens.pop();\n    }\n}\n\n// File: @openzeppelin/contracts/access/Ownable.sol\npragma solidity ^0.8.0;\n\n/**\n * @dev Contract module which provides a basic access control mechanism, where\n * there is an account (an owner) that can be granted exclusive access to\n * specific functions.\n *\n * By default, the owner account will be the one that deploys the contract. This\n * can later be changed with {transferOwnership}.\n *\n * This module is used through inheritance. It will make available the modifier\n * `onlyOwner`, which can be applied to your functions to restrict their use to\n * the owner.\n */\nabstract contract Ownable is Context {\n    address private _owner;\n\n    event OwnershipTransferred(\n        address indexed previousOwner,\n        address indexed newOwner\n    );\n\n    /**\n     * @dev Initializes the contract setting the deployer as the initial owner.\n     */\n    constructor() {\n        _setOwner(_msgSender());\n    }\n\n    /**\n     * @dev Returns the address of the current owner.\n     */\n    function owner() public view virtual returns (address) {\n        return _owner;\n    }\n\n    /**\n     * @dev Throws if called by any account other than the owner.\n     */\n    modifier onlyOwner() {\n        require(owner() == _msgSender(), \"Ownable: caller is not the owner\");\n        _;\n    }\n\n    /**\n     * @dev Leaves the contract without owner. It will not be possible to call\n     * `onlyOwner` functions anymore. Can only be called by the current owner.\n     *\n     * NOTE: Renouncing ownership will leave the contract without an owner,\n     * thereby removing any functionality that is only available to the owner.\n     */\n    function renounceOwnership() public virtual onlyOwner {\n        _setOwner(address(0));\n    }\n\n    /**\n     * @dev Transfers ownership of the contract to a new account (`newOwner`).\n     * Can only be called by the current owner.\n     */\n    function transferOwnership(address newOwner) public virtual onlyOwner {\n        require(\n            newOwner != address(0),\n            \"Ownable: new owner is the zero address\"\n        );\n        _setOwner(newOwner);\n    }\n\n    function _setOwner(address newOwner) private {\n        address oldOwner = _owner;\n        _owner = newOwner;\n        emit OwnershipTransferred(oldOwner, newOwner);\n    }\n}\n\npragma solidity >=0.7.0 <0.9.0;\n\ncontract OpenEmoji is ERC721Enumerable, Ownable {\n    using Strings for uint256;\n\n    string baseURI;\n    string public baseExtension = \".json\";\n    uint256 public cost = 0 ether;\n    uint256 public maxSupply = 12;\n    uint256 public maxMintAmount = 5;\n    uint256 public timeDeployed;\n    uint256 public allowMintingAfter = 0;\n    bool public isPaused = false;\n    bool public isRevealed = true;\n    string public notRevealedUri;\n\n    constructor(\n        string memory _name,\n        string memory _symbol,\n        string memory _initBaseURI,\n        string memory _initNotRevealedUri,\n        uint256 _revealTime\n    ) ERC721(_name, _symbol) {\n        if (_revealTime > block.timestamp) {\n            allowMintingAfter = _revealTime - block.timestamp;\n        }\n\n        timeDeployed = block.timestamp;\n        setBaseURI(_initBaseURI);\n        setNotRevealedURI(_initNotRevealedUri);\n    }\n\n    // internal\n    function _baseURI() internal view virtual override returns (string memory) {\n        return baseURI;\n    }\n\n    // public\n    function mint(uint256 _mintAmount) public payable {\n        require(\n            block.timestamp >= timeDeployed + allowMintingAfter,\n            \"Minting now allowed yet\"\n        );\n\n        require(balanceOf(msg.sender) < 5, \"Only 5 mints per account\");\n\n        uint256 supply = totalSupply();\n        require(!isPaused);\n        require(_mintAmount > 0);\n        require(_mintAmount <= maxMintAmount);\n        require(supply + _mintAmount <= maxSupply);\n\n        if (msg.sender != owner()) {\n            require(msg.value >= cost * _mintAmount);\n        }\n\n        for (uint256 i = 1; i <= _mintAmount; i++) {\n            _safeMint(msg.sender, supply + i);\n        }\n    }\n\n    function walletOfOwner(address _owner)\n        public\n        view\n        returns (uint256[] memory)\n    {\n        uint256 ownerTokenCount = balanceOf(_owner);\n        uint256[] memory tokenIds = new uint256[](ownerTokenCount);\n        for (uint256 i; i < ownerTokenCount; i++) {\n            tokenIds[i] = tokenOfOwnerByIndex(_owner, i);\n        }\n        return tokenIds;\n    }\n\n    function tokenURI(uint256 tokenId)\n        public\n        view\n        virtual\n        override\n        returns (string memory)\n    {\n        require(\n            _exists(tokenId),\n            \"ERC721Metadata: URI query for nonexistent token\"\n        );\n\n        if (isRevealed == false) {\n            return notRevealedUri;\n        }\n\n        string memory currentBaseURI = _baseURI();\n        return\n            bytes(currentBaseURI).length > 0\n                ? string(\n                    abi.encodePacked(\n                        currentBaseURI,\n                        tokenId.toString(),\n                        baseExtension\n                    )\n                )\n                : \"\";\n    }\n\n    function getSecondsUntilMinting() public view returns (uint256) {\n        if (block.timestamp < timeDeployed + allowMintingAfter) {\n            return (timeDeployed + allowMintingAfter) - block.timestamp;\n        } else {\n            return 0;\n        }\n    }\n\n    //only owner\n    function setIsRevealed(bool _state) public onlyOwner {\n        isRevealed = _state;\n    }\n\n    function setCost(uint256 _newCost) public onlyOwner {\n        cost = _newCost;\n    }\n\n    function setmaxMintAmount(uint256 _newmaxMintAmount) public onlyOwner {\n        maxMintAmount = _newmaxMintAmount;\n    }\n\n    function setNotRevealedURI(string memory _notRevealedURI) public onlyOwner {\n        notRevealedUri = _notRevealedURI;\n    }\n\n    function setBaseURI(string memory _newBaseURI) public onlyOwner {\n        baseURI = _newBaseURI;\n    }\n\n    function setBaseExtension(string memory _newBaseExtension)\n        public\n        onlyOwner\n    {\n        baseExtension = _newBaseExtension;\n    }\n\n    function setIsPaused(bool _state) public onlyOwner {\n        isPaused = _state;\n    }\n\n    function withdraw() public payable onlyOwner {\n        (bool success, ) = payable(msg.sender).call{\n            value: address(this).balance\n        }(\"\");\n        require(success);\n    }\n}\n",
  "sourcePath": "/Users/hartimat/Documents/Energy On Chain/Projects/22-01 HoustonBlockchainDevelopers/22-01-01 Metakicks/metakicks-nft-marketplace/src/contracts/OpenEmoji.sol",
  "compiler": {
    "name": "solc",
    "version": "0.8.9+commit.e5eed63a.Emscripten.clang"
  },
  "schemaVersion": "3.4.4",
  "updatedAt": "2022-07-18T18:28:39.516Z",
  "devdoc": {
    "kind": "dev",
    "methods": {
      "approve(address,uint256)": {
        "details": "See {IERC721-approve}."
      },
      "balanceOf(address)": {
        "details": "See {IERC721-balanceOf}."
      },
      "getApproved(uint256)": {
        "details": "See {IERC721-getApproved}."
      },
      "isApprovedForAll(address,address)": {
        "details": "See {IERC721-isApprovedForAll}."
      },
      "name()": {
        "details": "See {IERC721Metadata-name}."
      },
      "owner()": {
        "details": "Returns the address of the current owner."
      },
      "ownerOf(uint256)": {
        "details": "See {IERC721-ownerOf}."
      },
      "renounceOwnership()": {
        "details": "Leaves the contract without owner. It will not be possible to call `onlyOwner` functions anymore. Can only be called by the current owner. NOTE: Renouncing ownership will leave the contract without an owner, thereby removing any functionality that is only available to the owner."
      },
      "safeTransferFrom(address,address,uint256)": {
        "details": "See {IERC721-safeTransferFrom}."
      },
      "safeTransferFrom(address,address,uint256,bytes)": {
        "details": "See {IERC721-safeTransferFrom}."
      },
      "setApprovalForAll(address,bool)": {
        "details": "See {IERC721-setApprovalForAll}."
      },
      "supportsInterface(bytes4)": {
        "details": "See {IERC165-supportsInterface}."
      },
      "symbol()": {
        "details": "See {IERC721Metadata-symbol}."
      },
      "tokenByIndex(uint256)": {
        "details": "See {IERC721Enumerable-tokenByIndex}."
      },
      "tokenOfOwnerByIndex(address,uint256)": {
        "details": "See {IERC721Enumerable-tokenOfOwnerByIndex}."
      },
      "tokenURI(uint256)": {
        "details": "See {IERC721Metadata-tokenURI}."
      },
      "totalSupply()": {
        "details": "See {IERC721Enumerable-totalSupply}."
      },
      "transferFrom(address,address,uint256)": {
        "details": "See {IERC721-transferFrom}."
      },
      "transferOwnership(address)": {
        "details": "Transfers ownership of the contract to a new account (`newOwner`). Can only be called by the current owner."
      }
    },
    "version": 1
  },
  "userdoc": {
    "kind": "user",
    "methods": {},
    "version": 1
  }
}